{
  "_format": "hh-sol-artifact-1",
  "contractName": "Exchange",
  "sourceName": "contracts/Exchange.sol",
  "abi": [
    {
      "inputs": [
        {
          "internalType": "address",
          "name": "_CryptoDevtoken",
          "type": "address"
        }
      ],
      "stateMutability": "nonpayable",
      "type": "constructor"
    },
    {
      "anonymous": false,
      "inputs": [
        {
          "indexed": true,
          "internalType": "address",
          "name": "owner",
          "type": "address"
        },
        {
          "indexed": true,
          "internalType": "address",
          "name": "spender",
          "type": "address"
        },
        {
          "indexed": false,
          "internalType": "uint256",
          "name": "value",
          "type": "uint256"
        }
      ],
      "name": "Approval",
      "type": "event"
    },
    {
      "anonymous": false,
      "inputs": [
        {
          "indexed": true,
          "internalType": "address",
          "name": "from",
          "type": "address"
        },
        {
          "indexed": true,
          "internalType": "address",
          "name": "to",
          "type": "address"
        },
        {
          "indexed": false,
          "internalType": "uint256",
          "name": "value",
          "type": "uint256"
        }
      ],
      "name": "Transfer",
      "type": "event"
    },
    {
      "inputs": [
        {
          "internalType": "uint256",
          "name": "_amount",
          "type": "uint256"
        }
      ],
      "name": "addLiquidity",
      "outputs": [
        {
          "internalType": "uint256",
          "name": "",
          "type": "uint256"
        }
      ],
      "stateMutability": "payable",
      "type": "function"
    },
    {
      "inputs": [
        {
          "internalType": "address",
          "name": "owner",
          "type": "address"
        },
        {
          "internalType": "address",
          "name": "spender",
          "type": "address"
        }
      ],
      "name": "allowance",
      "outputs": [
        {
          "internalType": "uint256",
          "name": "",
          "type": "uint256"
        }
      ],
      "stateMutability": "view",
      "type": "function"
    },
    {
      "inputs": [
        {
          "internalType": "address",
          "name": "spender",
          "type": "address"
        },
        {
          "internalType": "uint256",
          "name": "amount",
          "type": "uint256"
        }
      ],
      "name": "approve",
      "outputs": [
        {
          "internalType": "bool",
          "name": "",
          "type": "bool"
        }
      ],
      "stateMutability": "nonpayable",
      "type": "function"
    },
    {
      "inputs": [
        {
          "internalType": "address",
          "name": "account",
          "type": "address"
        }
      ],
      "name": "balanceOf",
      "outputs": [
        {
          "internalType": "uint256",
          "name": "",
          "type": "uint256"
        }
      ],
      "stateMutability": "view",
      "type": "function"
    },
    {
      "inputs": [],
      "name": "cryptoDevTokenAddress",
      "outputs": [
        {
          "internalType": "address",
          "name": "",
          "type": "address"
        }
      ],
      "stateMutability": "view",
      "type": "function"
    },
    {
      "inputs": [
        {
          "internalType": "uint256",
          "name": "_tokensSold",
          "type": "uint256"
        },
        {
          "internalType": "uint256",
          "name": "_minEth",
          "type": "uint256"
        }
      ],
      "name": "cryptoDevTokenToEth",
      "outputs": [],
      "stateMutability": "nonpayable",
      "type": "function"
    },
    {
      "inputs": [],
      "name": "decimals",
      "outputs": [
        {
          "internalType": "uint8",
          "name": "",
          "type": "uint8"
        }
      ],
      "stateMutability": "view",
      "type": "function"
    },
    {
      "inputs": [
        {
          "internalType": "address",
          "name": "spender",
          "type": "address"
        },
        {
          "internalType": "uint256",
          "name": "subtractedValue",
          "type": "uint256"
        }
      ],
      "name": "decreaseAllowance",
      "outputs": [
        {
          "internalType": "bool",
          "name": "",
          "type": "bool"
        }
      ],
      "stateMutability": "nonpayable",
      "type": "function"
    },
    {
      "inputs": [
        {
          "internalType": "uint256",
          "name": "_minTokens",
          "type": "uint256"
        }
      ],
      "name": "ethToCryptoDevToken",
      "outputs": [],
      "stateMutability": "payable",
      "type": "function"
    },
    {
      "inputs": [
        {
          "internalType": "uint256",
          "name": "inputAmount",
          "type": "uint256"
        },
        {
          "internalType": "uint256",
          "name": "inputReserve",
          "type": "uint256"
        },
        {
          "internalType": "uint256",
          "name": "outputReserve",
          "type": "uint256"
        }
      ],
      "name": "getAmountOfTokens",
      "outputs": [
        {
          "internalType": "uint256",
          "name": "",
          "type": "uint256"
        }
      ],
      "stateMutability": "pure",
      "type": "function"
    },
    {
      "inputs": [],
      "name": "getReserve",
      "outputs": [
        {
          "internalType": "uint256",
          "name": "",
          "type": "uint256"
        }
      ],
      "stateMutability": "view",
      "type": "function"
    },
    {
      "inputs": [
        {
          "internalType": "address",
          "name": "spender",
          "type": "address"
        },
        {
          "internalType": "uint256",
          "name": "addedValue",
          "type": "uint256"
        }
      ],
      "name": "increaseAllowance",
      "outputs": [
        {
          "internalType": "bool",
          "name": "",
          "type": "bool"
        }
      ],
      "stateMutability": "nonpayable",
      "type": "function"
    },
    {
      "inputs": [],
      "name": "name",
      "outputs": [
        {
          "internalType": "string",
          "name": "",
          "type": "string"
        }
      ],
      "stateMutability": "view",
      "type": "function"
    },
    {
      "inputs": [
        {
          "internalType": "uint256",
          "name": "_amount",
          "type": "uint256"
        }
      ],
      "name": "removeLiquidity",
      "outputs": [
        {
          "internalType": "uint256",
          "name": "",
          "type": "uint256"
        },
        {
          "internalType": "uint256",
          "name": "",
          "type": "uint256"
        }
      ],
      "stateMutability": "nonpayable",
      "type": "function"
    },
    {
      "inputs": [],
      "name": "symbol",
      "outputs": [
        {
          "internalType": "string",
          "name": "",
          "type": "string"
        }
      ],
      "stateMutability": "view",
      "type": "function"
    },
    {
      "inputs": [],
      "name": "totalSupply",
      "outputs": [
        {
          "internalType": "uint256",
          "name": "",
          "type": "uint256"
        }
      ],
      "stateMutability": "view",
      "type": "function"
    },
    {
      "inputs": [
        {
          "internalType": "address",
          "name": "to",
          "type": "address"
        },
        {
          "internalType": "uint256",
          "name": "amount",
          "type": "uint256"
        }
      ],
      "name": "transfer",
      "outputs": [
        {
          "internalType": "bool",
          "name": "",
          "type": "bool"
        }
      ],
      "stateMutability": "nonpayable",
      "type": "function"
    },
    {
      "inputs": [
        {
          "internalType": "address",
          "name": "from",
          "type": "address"
        },
        {
          "internalType": "address",
          "name": "to",
          "type": "address"
        },
        {
          "internalType": "uint256",
          "name": "amount",
          "type": "uint256"
        }
      ],
      "name": "transferFrom",
      "outputs": [
        {
          "internalType": "bool",
          "name": "",
          "type": "bool"
        }
      ],
      "stateMutability": "nonpayable",
      "type": "function"
    }
  ],
  "bytecode": "0x60806040523480156200001157600080fd5b5060405162002a9d38038062002a9d8339818101604052810190620000379190620002ac565b6040518060400160405280601281526020017f43727970746f446576204c5020546f6b656e00000000000000000000000000008152506040518060400160405280600481526020017f43444c50000000000000000000000000000000000000000000000000000000008152508160039080519060200190620000bb92919062000192565b508060049080519060200190620000d492919062000192565b505050600073ffffffffffffffffffffffffffffffffffffffff168173ffffffffffffffffffffffffffffffffffffffff1614156200014a576040517f08c379a0000000000000000000000000000000000000000000000000000000008152600401620001419062000365565b60405180910390fd5b80600560006101000a81548173ffffffffffffffffffffffffffffffffffffffff021916908373ffffffffffffffffffffffffffffffffffffffff16021790555050620003ec565b828054620001a090620003b6565b90600052602060002090601f016020900481019282620001c4576000855562000210565b82601f10620001df57805160ff191683800117855562000210565b8280016001018555821562000210579182015b828111156200020f578251825591602001919060010190620001f2565b5b5090506200021f919062000223565b5090565b5b808211156200023e57600081600090555060010162000224565b5090565b600080fd5b600073ffffffffffffffffffffffffffffffffffffffff82169050919050565b6000620002748262000247565b9050919050565b620002868162000267565b81146200029257600080fd5b50565b600081519050620002a6816200027b565b92915050565b600060208284031215620002c557620002c462000242565b5b6000620002d58482850162000295565b91505092915050565b600082825260208201905092915050565b7f546f6b656e2061646472657373207061737365642069732061206e756c6c206160008201527f6464726573730000000000000000000000000000000000000000000000000000602082015250565b60006200034d602683620002de565b91506200035a82620002ef565b604082019050919050565b6000602082019050818103600083015262000380816200033e565b9050919050565b7f4e487b7100000000000000000000000000000000000000000000000000000000600052602260045260246000fd5b60006002820490506001821680620003cf57607f821691505b60208210811415620003e657620003e562000387565b5b50919050565b6126a180620003fc6000396000f3fe6080604052600436106101095760003560e01c806370a08231116100955780639e7a2922116100645780639e7a2922146103ad578063a457c2d7146103d8578063a9059cbb14610415578063dd62ed3e14610452578063f0566bb71461048f57610109565b806370a08231146102ca5780637386479e1461030757806395d89b41146103445780639c8f9f231461036f57610109565b8063313ce567116100dc578063313ce567146101de578063395093511461020957806351c6590a1461024657806359bf5d39146102765780636c25a25a146102a157610109565b806306fdde031461010e578063095ea7b31461013957806318160ddd1461017657806323b872dd146101a1575b600080fd5b34801561011a57600080fd5b506101236104ab565b60405161013091906118d3565b60405180910390f35b34801561014557600080fd5b50610160600480360381019061015b919061198e565b61053d565b60405161016d91906119e9565b60405180910390f35b34801561018257600080fd5b5061018b610560565b6040516101989190611a13565b60405180910390f35b3480156101ad57600080fd5b506101c860048036038101906101c39190611a2e565b61056a565b6040516101d591906119e9565b60405180910390f35b3480156101ea57600080fd5b506101f3610599565b6040516102009190611a9d565b60405180910390f35b34801561021557600080fd5b50610230600480360381019061022b919061198e565b6105a2565b60405161023d91906119e9565b60405180910390f35b610260600480360381019061025b9190611ab8565b61064c565b60405161026d9190611a13565b60405180910390f35b34801561028257600080fd5b5061028b61084b565b6040516102989190611a13565b60405180910390f35b3480156102ad57600080fd5b506102c860048036038101906102c39190611ae5565b6108ee565b005b3480156102d657600080fd5b506102f160048036038101906102ec9190611b25565b610a3c565b6040516102fe9190611a13565b60405180910390f35b34801561031357600080fd5b5061032e60048036038101906103299190611b52565b610a84565b60405161033b9190611a13565b60405180910390f35b34801561035057600080fd5b50610359610b29565b60405161036691906118d3565b60405180910390f35b34801561037b57600080fd5b5061039660048036038101906103919190611ab8565b610bbb565b6040516103a4929190611ba5565b60405180910390f35b3480156103b957600080fd5b506103c2610d50565b6040516103cf9190611bdd565b60405180910390f35b3480156103e457600080fd5b506103ff60048036038101906103fa919061198e565b610d76565b60405161040c91906119e9565b60405180910390f35b34801561042157600080fd5b5061043c6004803603810190610437919061198e565b610e60565b60405161044991906119e9565b60405180910390f35b34801561045e57600080fd5b5061047960048036038101906104749190611bf8565b610e83565b6040516104869190611a13565b60405180910390f35b6104a960048036038101906104a49190611ab8565b610f0a565b005b6060600380546104ba90611c67565b80601f01602080910402602001604051908101604052809291908181526020018280546104e690611c67565b80156105335780601f1061050857610100808354040283529160200191610533565b820191906000526020600020905b81548152906001019060200180831161051657829003601f168201915b5050505050905090565b600080610548611019565b9050610555818585611021565b600191505092915050565b6000600254905090565b600080610575611019565b90506105828582856111ec565b61058d858585611278565b60019150509392505050565b60006012905090565b6000806105ad611019565b9050610641818585600160008673ffffffffffffffffffffffffffffffffffffffff1673ffffffffffffffffffffffffffffffffffffffff16815260200190815260200160002060008973ffffffffffffffffffffffffffffffffffffffff1673ffffffffffffffffffffffffffffffffffffffff1681526020019081526020016000205461063c9190611cc8565b611021565b600191505092915050565b6000806000479050600061065e61084b565b90506000600560009054906101000a900473ffffffffffffffffffffffffffffffffffffffff1690506000821415610723578073ffffffffffffffffffffffffffffffffffffffff166323b872dd3330896040518463ffffffff1660e01b81526004016106cd93929190611d1e565b6020604051808303816000875af11580156106ec573d6000803e3d6000fd5b505050506040513d601f19601f820116820180604052508101906107109190611d81565b5082935061071e33856114f9565b61083f565b600034846107319190611dae565b905060008184346107429190611de2565b61074c9190611e6b565b905080881015610791576040517f08c379a000000000000000000000000000000000000000000000000000000000815260040161078890611f0e565b60405180910390fd5b8273ffffffffffffffffffffffffffffffffffffffff166323b872dd3330846040518463ffffffff1660e01b81526004016107ce93929190611d1e565b6020604051808303816000875af11580156107ed573d6000803e3d6000fd5b505050506040513d601f19601f820116820180604052508101906108119190611d81565b50813461081c610560565b6108269190611de2565b6108309190611e6b565b955061083c33876114f9565b50505b83945050505050919050565b6000600560009054906101000a900473ffffffffffffffffffffffffffffffffffffffff1673ffffffffffffffffffffffffffffffffffffffff166370a08231306040518263ffffffff1660e01b81526004016108a89190611bdd565b602060405180830381865afa1580156108c5573d6000803e3d6000fd5b505050506040513d601f19601f820116820180604052508101906108e99190611f43565b905090565b60006108f861084b565b90506000610907848347610a84565b90508281101561094c576040517f08c379a000000000000000000000000000000000000000000000000000000000815260040161094390611fbc565b60405180910390fd5b600560009054906101000a900473ffffffffffffffffffffffffffffffffffffffff1673ffffffffffffffffffffffffffffffffffffffff166323b872dd3330876040518463ffffffff1660e01b81526004016109ab93929190611d1e565b6020604051808303816000875af11580156109ca573d6000803e3d6000fd5b505050506040513d601f19601f820116820180604052508101906109ee9190611d81565b503373ffffffffffffffffffffffffffffffffffffffff166108fc829081150290604051600060405180830381858888f19350505050158015610a35573d6000803e3d6000fd5b5050505050565b60008060008373ffffffffffffffffffffffffffffffffffffffff1673ffffffffffffffffffffffffffffffffffffffff168152602001908152602001600020549050919050565b60008083118015610a955750600082115b610ad4576040517f08c379a0000000000000000000000000000000000000000000000000000000008152600401610acb90612028565b60405180910390fd5b6000606385610ae39190611de2565b905060008382610af39190611de2565b9050600082606487610b059190611de2565b610b0f9190611cc8565b90508082610b1d9190611e6b565b93505050509392505050565b606060048054610b3890611c67565b80601f0160208091040260200160405190810160405280929190818152602001828054610b6490611c67565b8015610bb15780601f10610b8657610100808354040283529160200191610bb1565b820191906000526020600020905b815481529060010190602001808311610b9457829003601f168201915b5050505050905090565b60008060008311610c01576040517f08c379a0000000000000000000000000000000000000000000000000000000008152600401610bf8906120ba565b60405180910390fd5b60004790506000610c10610560565b90506000818684610c219190611de2565b610c2b9190611e6b565b905060008287610c3961084b565b610c439190611de2565b610c4d9190611e6b565b9050610c593388611659565b3373ffffffffffffffffffffffffffffffffffffffff166108fc839081150290604051600060405180830381858888f19350505050158015610c9f573d6000803e3d6000fd5b50600560009054906101000a900473ffffffffffffffffffffffffffffffffffffffff1673ffffffffffffffffffffffffffffffffffffffff1663a9059cbb33836040518363ffffffff1660e01b8152600401610cfd9291906120da565b6020604051808303816000875af1158015610d1c573d6000803e3d6000fd5b505050506040513d601f19601f82011682018060405250810190610d409190611d81565b5081819550955050505050915091565b600560009054906101000a900473ffffffffffffffffffffffffffffffffffffffff1681565b600080610d81611019565b90506000600160008373ffffffffffffffffffffffffffffffffffffffff1673ffffffffffffffffffffffffffffffffffffffff16815260200190815260200160002060008673ffffffffffffffffffffffffffffffffffffffff1673ffffffffffffffffffffffffffffffffffffffff16815260200190815260200160002054905083811015610e47576040517f08c379a0000000000000000000000000000000000000000000000000000000008152600401610e3e90612175565b60405180910390fd5b610e548286868403611021565b60019250505092915050565b600080610e6b611019565b9050610e78818585611278565b600191505092915050565b6000600160008473ffffffffffffffffffffffffffffffffffffffff1673ffffffffffffffffffffffffffffffffffffffff16815260200190815260200160002060008373ffffffffffffffffffffffffffffffffffffffff1673ffffffffffffffffffffffffffffffffffffffff16815260200190815260200160002054905092915050565b6000610f1461084b565b90506000610f2e343447610f289190611dae565b84610a84565b905082811015610f73576040517f08c379a0000000000000000000000000000000000000000000000000000000008152600401610f6a90611fbc565b60405180910390fd5b600560009054906101000a900473ffffffffffffffffffffffffffffffffffffffff1673ffffffffffffffffffffffffffffffffffffffff1663a9059cbb33836040518363ffffffff1660e01b8152600401610fd09291906120da565b6020604051808303816000875af1158015610fef573d6000803e3d6000fd5b505050506040513d601f19601f820116820180604052508101906110139190611d81565b50505050565b600033905090565b600073ffffffffffffffffffffffffffffffffffffffff168373ffffffffffffffffffffffffffffffffffffffff161415611091576040517f08c379a000000000000000000000000000000000000000000000000000000000815260040161108890612207565b60405180910390fd5b600073ffffffffffffffffffffffffffffffffffffffff168273ffffffffffffffffffffffffffffffffffffffff161415611101576040517f08c379a00000000000000000000000000000000000000000000000000000000081526004016110f890612299565b60405180910390fd5b80600160008573ffffffffffffffffffffffffffffffffffffffff1673ffffffffffffffffffffffffffffffffffffffff16815260200190815260200160002060008473ffffffffffffffffffffffffffffffffffffffff1673ffffffffffffffffffffffffffffffffffffffff168152602001908152602001600020819055508173ffffffffffffffffffffffffffffffffffffffff168373ffffffffffffffffffffffffffffffffffffffff167f8c5be1e5ebec7d5bd14f71427d1e84f3dd0314c0f7b2291e5b200ac8c7c3b925836040516111df9190611a13565b60405180910390a3505050565b60006111f88484610e83565b90507fffffffffffffffffffffffffffffffffffffffffffffffffffffffffffffffff81146112725781811015611264576040517f08c379a000000000000000000000000000000000000000000000000000000000815260040161125b90612305565b60405180910390fd5b6112718484848403611021565b5b50505050565b600073ffffffffffffffffffffffffffffffffffffffff168373ffffffffffffffffffffffffffffffffffffffff1614156112e8576040517f08c379a00000000000000000000000000000000000000000000000000000000081526004016112df90612397565b60405180910390fd5b600073ffffffffffffffffffffffffffffffffffffffff168273ffffffffffffffffffffffffffffffffffffffff161415611358576040517f08c379a000000000000000000000000000000000000000000000000000000000815260040161134f90612429565b60405180910390fd5b611363838383611830565b60008060008573ffffffffffffffffffffffffffffffffffffffff1673ffffffffffffffffffffffffffffffffffffffff168152602001908152602001600020549050818110156113e9576040517f08c379a00000000000000000000000000000000000000000000000000000000081526004016113e0906124bb565b60405180910390fd5b8181036000808673ffffffffffffffffffffffffffffffffffffffff1673ffffffffffffffffffffffffffffffffffffffff16815260200190815260200160002081905550816000808573ffffffffffffffffffffffffffffffffffffffff1673ffffffffffffffffffffffffffffffffffffffff168152602001908152602001600020600082825461147c9190611cc8565b925050819055508273ffffffffffffffffffffffffffffffffffffffff168473ffffffffffffffffffffffffffffffffffffffff167fddf252ad1be2c89b69c2b068fc378daa952ba7f163c4a11628f55a4df523b3ef846040516114e09190611a13565b60405180910390a36114f3848484611835565b50505050565b600073ffffffffffffffffffffffffffffffffffffffff168273ffffffffffffffffffffffffffffffffffffffff161415611569576040517f08c379a000000000000000000000000000000000000000000000000000000000815260040161156090612527565b60405180910390fd5b61157560008383611830565b80600260008282546115879190611cc8565b92505081905550806000808473ffffffffffffffffffffffffffffffffffffffff1673ffffffffffffffffffffffffffffffffffffffff16815260200190815260200160002060008282546115dc9190611cc8565b925050819055508173ffffffffffffffffffffffffffffffffffffffff16600073ffffffffffffffffffffffffffffffffffffffff167fddf252ad1be2c89b69c2b068fc378daa952ba7f163c4a11628f55a4df523b3ef836040516116419190611a13565b60405180910390a361165560008383611835565b5050565b600073ffffffffffffffffffffffffffffffffffffffff168273ffffffffffffffffffffffffffffffffffffffff1614156116c9576040517f08c379a00000000000000000000000000000000000000000000000000000000081526004016116c0906125b9565b60405180910390fd5b6116d582600083611830565b60008060008473ffffffffffffffffffffffffffffffffffffffff1673ffffffffffffffffffffffffffffffffffffffff1681526020019081526020016000205490508181101561175b576040517f08c379a00000000000000000000000000000000000000000000000000000000081526004016117529061264b565b60405180910390fd5b8181036000808573ffffffffffffffffffffffffffffffffffffffff1673ffffffffffffffffffffffffffffffffffffffff1681526020019081526020016000208190555081600260008282546117b29190611dae565b92505081905550600073ffffffffffffffffffffffffffffffffffffffff168373ffffffffffffffffffffffffffffffffffffffff167fddf252ad1be2c89b69c2b068fc378daa952ba7f163c4a11628f55a4df523b3ef846040516118179190611a13565b60405180910390a361182b83600084611835565b505050565b505050565b505050565b600081519050919050565b600082825260208201905092915050565b60005b83811015611874578082015181840152602081019050611859565b83811115611883576000848401525b50505050565b6000601f19601f8301169050919050565b60006118a58261183a565b6118af8185611845565b93506118bf818560208601611856565b6118c881611889565b840191505092915050565b600060208201905081810360008301526118ed818461189a565b905092915050565b600080fd5b600073ffffffffffffffffffffffffffffffffffffffff82169050919050565b6000611925826118fa565b9050919050565b6119358161191a565b811461194057600080fd5b50565b6000813590506119528161192c565b92915050565b6000819050919050565b61196b81611958565b811461197657600080fd5b50565b60008135905061198881611962565b92915050565b600080604083850312156119a5576119a46118f5565b5b60006119b385828601611943565b92505060206119c485828601611979565b9150509250929050565b60008115159050919050565b6119e3816119ce565b82525050565b60006020820190506119fe60008301846119da565b92915050565b611a0d81611958565b82525050565b6000602082019050611a286000830184611a04565b92915050565b600080600060608486031215611a4757611a466118f5565b5b6000611a5586828701611943565b9350506020611a6686828701611943565b9250506040611a7786828701611979565b9150509250925092565b600060ff82169050919050565b611a9781611a81565b82525050565b6000602082019050611ab26000830184611a8e565b92915050565b600060208284031215611ace57611acd6118f5565b5b6000611adc84828501611979565b91505092915050565b60008060408385031215611afc57611afb6118f5565b5b6000611b0a85828601611979565b9250506020611b1b85828601611979565b9150509250929050565b600060208284031215611b3b57611b3a6118f5565b5b6000611b4984828501611943565b91505092915050565b600080600060608486031215611b6b57611b6a6118f5565b5b6000611b7986828701611979565b9350506020611b8a86828701611979565b9250506040611b9b86828701611979565b9150509250925092565b6000604082019050611bba6000830185611a04565b611bc76020830184611a04565b9392505050565b611bd78161191a565b82525050565b6000602082019050611bf26000830184611bce565b92915050565b60008060408385031215611c0f57611c0e6118f5565b5b6000611c1d85828601611943565b9250506020611c2e85828601611943565b9150509250929050565b7f4e487b7100000000000000000000000000000000000000000000000000000000600052602260045260246000fd5b60006002820490506001821680611c7f57607f821691505b60208210811415611c9357611c92611c38565b5b50919050565b7f4e487b7100000000000000000000000000000000000000000000000000000000600052601160045260246000fd5b6000611cd382611958565b9150611cde83611958565b9250827fffffffffffffffffffffffffffffffffffffffffffffffffffffffffffffffff03821115611d1357611d12611c99565b5b828201905092915050565b6000606082019050611d336000830186611bce565b611d406020830185611bce565b611d4d6040830184611a04565b949350505050565b611d5e816119ce565b8114611d6957600080fd5b50565b600081519050611d7b81611d55565b92915050565b600060208284031215611d9757611d966118f5565b5b6000611da584828501611d6c565b91505092915050565b6000611db982611958565b9150611dc483611958565b925082821015611dd757611dd6611c99565b5b828203905092915050565b6000611ded82611958565b9150611df883611958565b9250817fffffffffffffffffffffffffffffffffffffffffffffffffffffffffffffffff0483118215151615611e3157611e30611c99565b5b828202905092915050565b7f4e487b7100000000000000000000000000000000000000000000000000000000600052601260045260246000fd5b6000611e7682611958565b9150611e8183611958565b925082611e9157611e90611e3c565b5b828204905092915050565b7f416d6f756e74206f6620746f6b656e732073656e74206973206c65737320746860008201527f616e20746865206d696e696d756d20746f6b656e732072657175697265640000602082015250565b6000611ef8603e83611845565b9150611f0382611e9c565b604082019050919050565b60006020820190508181036000830152611f2781611eeb565b9050919050565b600081519050611f3d81611962565b92915050565b600060208284031215611f5957611f586118f5565b5b6000611f6784828501611f2e565b91505092915050565b7f696e73756666696369656e74206f757470757420616d6f756e74000000000000600082015250565b6000611fa6601a83611845565b9150611fb182611f70565b602082019050919050565b60006020820190508181036000830152611fd581611f99565b9050919050565b7f696e76616c696420726573657276657300000000000000000000000000000000600082015250565b6000612012601083611845565b915061201d82611fdc565b602082019050919050565b6000602082019050818103600083015261204181612005565b9050919050565b7f5f616d6f756e742073686f756c642062652067726561746572207468616e207a60008201527f65726f0000000000000000000000000000000000000000000000000000000000602082015250565b60006120a4602383611845565b91506120af82612048565b604082019050919050565b600060208201905081810360008301526120d381612097565b9050919050565b60006040820190506120ef6000830185611bce565b6120fc6020830184611a04565b9392505050565b7f45524332303a2064656372656173656420616c6c6f77616e63652062656c6f7760008201527f207a65726f000000000000000000000000000000000000000000000000000000602082015250565b600061215f602583611845565b915061216a82612103565b604082019050919050565b6000602082019050818103600083015261218e81612152565b9050919050565b7f45524332303a20617070726f76652066726f6d20746865207a65726f2061646460008201527f7265737300000000000000000000000000000000000000000000000000000000602082015250565b60006121f1602483611845565b91506121fc82612195565b604082019050919050565b60006020820190508181036000830152612220816121e4565b9050919050565b7f45524332303a20617070726f766520746f20746865207a65726f20616464726560008201527f7373000000000000000000000000000000000000000000000000000000000000602082015250565b6000612283602283611845565b915061228e82612227565b604082019050919050565b600060208201905081810360008301526122b281612276565b9050919050565b7f45524332303a20696e73756666696369656e7420616c6c6f77616e6365000000600082015250565b60006122ef601d83611845565b91506122fa826122b9565b602082019050919050565b6000602082019050818103600083015261231e816122e2565b9050919050565b7f45524332303a207472616e736665722066726f6d20746865207a65726f20616460008201527f6472657373000000000000000000000000000000000000000000000000000000602082015250565b6000612381602583611845565b915061238c82612325565b604082019050919050565b600060208201905081810360008301526123b081612374565b9050919050565b7f45524332303a207472616e7366657220746f20746865207a65726f206164647260008201527f6573730000000000000000000000000000000000000000000000000000000000602082015250565b6000612413602383611845565b915061241e826123b7565b604082019050919050565b6000602082019050818103600083015261244281612406565b9050919050565b7f45524332303a207472616e7366657220616d6f756e742065786365656473206260008201527f616c616e63650000000000000000000000000000000000000000000000000000602082015250565b60006124a5602683611845565b91506124b082612449565b604082019050919050565b600060208201905081810360008301526124d481612498565b9050919050565b7f45524332303a206d696e7420746f20746865207a65726f206164647265737300600082015250565b6000612511601f83611845565b915061251c826124db565b602082019050919050565b6000602082019050818103600083015261254081612504565b9050919050565b7f45524332303a206275726e2066726f6d20746865207a65726f2061646472657360008201527f7300000000000000000000000000000000000000000000000000000000000000602082015250565b60006125a3602183611845565b91506125ae82612547565b604082019050919050565b600060208201905081810360008301526125d281612596565b9050919050565b7f45524332303a206275726e20616d6f756e7420657863656564732062616c616e60008201527f6365000000000000000000000000000000000000000000000000000000000000602082015250565b6000612635602283611845565b9150612640826125d9565b604082019050919050565b6000602082019050818103600083015261266481612628565b905091905056fea2646970667358221220b2ca59c66ca1119c4b63ec0a3f26b254e2d7ff584b406acdf177f2f03405659564736f6c634300080a0033",
  "linkReferences": {},
  "deployedLinkReferences": {}
}