{
  "_format": "hh-sol-artifact-1",
  "contractName": "LW3Punks",
  "sourceName": "contracts/LW3punks.sol",
  "abi": [
    {
      "inputs": [
        {
          "internalType": "string",
          "name": "baseURI",
          "type": "string"
        }
      ],
      "stateMutability": "nonpayable",
      "type": "constructor"
    },
    {
      "anonymous": false,
      "inputs": [
        {
          "indexed": true,
          "internalType": "address",
          "name": "owner",
          "type": "address"
        },
        {
          "indexed": true,
          "internalType": "address",
          "name": "approved",
          "type": "address"
        },
        {
          "indexed": true,
          "internalType": "uint256",
          "name": "tokenId",
          "type": "uint256"
        }
      ],
      "name": "Approval",
      "type": "event"
    },
    {
      "anonymous": false,
      "inputs": [
        {
          "indexed": true,
          "internalType": "address",
          "name": "owner",
          "type": "address"
        },
        {
          "indexed": true,
          "internalType": "address",
          "name": "operator",
          "type": "address"
        },
        {
          "indexed": false,
          "internalType": "bool",
          "name": "approved",
          "type": "bool"
        }
      ],
      "name": "ApprovalForAll",
      "type": "event"
    },
    {
      "anonymous": false,
      "inputs": [
        {
          "indexed": true,
          "internalType": "address",
          "name": "previousOwner",
          "type": "address"
        },
        {
          "indexed": true,
          "internalType": "address",
          "name": "newOwner",
          "type": "address"
        }
      ],
      "name": "OwnershipTransferred",
      "type": "event"
    },
    {
      "anonymous": false,
      "inputs": [
        {
          "indexed": true,
          "internalType": "address",
          "name": "from",
          "type": "address"
        },
        {
          "indexed": true,
          "internalType": "address",
          "name": "to",
          "type": "address"
        },
        {
          "indexed": true,
          "internalType": "uint256",
          "name": "tokenId",
          "type": "uint256"
        }
      ],
      "name": "Transfer",
      "type": "event"
    },
    {
      "stateMutability": "payable",
      "type": "fallback"
    },
    {
      "inputs": [],
      "name": "_paused",
      "outputs": [
        {
          "internalType": "bool",
          "name": "",
          "type": "bool"
        }
      ],
      "stateMutability": "view",
      "type": "function"
    },
    {
      "inputs": [],
      "name": "_price",
      "outputs": [
        {
          "internalType": "uint256",
          "name": "",
          "type": "uint256"
        }
      ],
      "stateMutability": "view",
      "type": "function"
    },
    {
      "inputs": [
        {
          "internalType": "address",
          "name": "to",
          "type": "address"
        },
        {
          "internalType": "uint256",
          "name": "tokenId",
          "type": "uint256"
        }
      ],
      "name": "approve",
      "outputs": [],
      "stateMutability": "nonpayable",
      "type": "function"
    },
    {
      "inputs": [
        {
          "internalType": "address",
          "name": "owner",
          "type": "address"
        }
      ],
      "name": "balanceOf",
      "outputs": [
        {
          "internalType": "uint256",
          "name": "",
          "type": "uint256"
        }
      ],
      "stateMutability": "view",
      "type": "function"
    },
    {
      "inputs": [
        {
          "internalType": "uint256",
          "name": "tokenId",
          "type": "uint256"
        }
      ],
      "name": "getApproved",
      "outputs": [
        {
          "internalType": "address",
          "name": "",
          "type": "address"
        }
      ],
      "stateMutability": "view",
      "type": "function"
    },
    {
      "inputs": [
        {
          "internalType": "address",
          "name": "owner",
          "type": "address"
        },
        {
          "internalType": "address",
          "name": "operator",
          "type": "address"
        }
      ],
      "name": "isApprovedForAll",
      "outputs": [
        {
          "internalType": "bool",
          "name": "",
          "type": "bool"
        }
      ],
      "stateMutability": "view",
      "type": "function"
    },
    {
      "inputs": [],
      "name": "maxTokenIds",
      "outputs": [
        {
          "internalType": "uint256",
          "name": "",
          "type": "uint256"
        }
      ],
      "stateMutability": "view",
      "type": "function"
    },
    {
      "inputs": [],
      "name": "mint",
      "outputs": [],
      "stateMutability": "payable",
      "type": "function"
    },
    {
      "inputs": [],
      "name": "name",
      "outputs": [
        {
          "internalType": "string",
          "name": "",
          "type": "string"
        }
      ],
      "stateMutability": "view",
      "type": "function"
    },
    {
      "inputs": [],
      "name": "owner",
      "outputs": [
        {
          "internalType": "address",
          "name": "",
          "type": "address"
        }
      ],
      "stateMutability": "view",
      "type": "function"
    },
    {
      "inputs": [
        {
          "internalType": "uint256",
          "name": "tokenId",
          "type": "uint256"
        }
      ],
      "name": "ownerOf",
      "outputs": [
        {
          "internalType": "address",
          "name": "",
          "type": "address"
        }
      ],
      "stateMutability": "view",
      "type": "function"
    },
    {
      "inputs": [],
      "name": "renounceOwnership",
      "outputs": [],
      "stateMutability": "nonpayable",
      "type": "function"
    },
    {
      "inputs": [
        {
          "internalType": "address",
          "name": "from",
          "type": "address"
        },
        {
          "internalType": "address",
          "name": "to",
          "type": "address"
        },
        {
          "internalType": "uint256",
          "name": "tokenId",
          "type": "uint256"
        }
      ],
      "name": "safeTransferFrom",
      "outputs": [],
      "stateMutability": "nonpayable",
      "type": "function"
    },
    {
      "inputs": [
        {
          "internalType": "address",
          "name": "from",
          "type": "address"
        },
        {
          "internalType": "address",
          "name": "to",
          "type": "address"
        },
        {
          "internalType": "uint256",
          "name": "tokenId",
          "type": "uint256"
        },
        {
          "internalType": "bytes",
          "name": "_data",
          "type": "bytes"
        }
      ],
      "name": "safeTransferFrom",
      "outputs": [],
      "stateMutability": "nonpayable",
      "type": "function"
    },
    {
      "inputs": [
        {
          "internalType": "address",
          "name": "operator",
          "type": "address"
        },
        {
          "internalType": "bool",
          "name": "approved",
          "type": "bool"
        }
      ],
      "name": "setApprovalForAll",
      "outputs": [],
      "stateMutability": "nonpayable",
      "type": "function"
    },
    {
      "inputs": [
        {
          "internalType": "bool",
          "name": "val",
          "type": "bool"
        }
      ],
      "name": "setPaused",
      "outputs": [],
      "stateMutability": "nonpayable",
      "type": "function"
    },
    {
      "inputs": [
        {
          "internalType": "bytes4",
          "name": "interfaceId",
          "type": "bytes4"
        }
      ],
      "name": "supportsInterface",
      "outputs": [
        {
          "internalType": "bool",
          "name": "",
          "type": "bool"
        }
      ],
      "stateMutability": "view",
      "type": "function"
    },
    {
      "inputs": [],
      "name": "symbol",
      "outputs": [
        {
          "internalType": "string",
          "name": "",
          "type": "string"
        }
      ],
      "stateMutability": "view",
      "type": "function"
    },
    {
      "inputs": [
        {
          "internalType": "uint256",
          "name": "index",
          "type": "uint256"
        }
      ],
      "name": "tokenByIndex",
      "outputs": [
        {
          "internalType": "uint256",
          "name": "",
          "type": "uint256"
        }
      ],
      "stateMutability": "view",
      "type": "function"
    },
    {
      "inputs": [],
      "name": "tokenIds",
      "outputs": [
        {
          "internalType": "uint256",
          "name": "",
          "type": "uint256"
        }
      ],
      "stateMutability": "view",
      "type": "function"
    },
    {
      "inputs": [
        {
          "internalType": "address",
          "name": "owner",
          "type": "address"
        },
        {
          "internalType": "uint256",
          "name": "index",
          "type": "uint256"
        }
      ],
      "name": "tokenOfOwnerByIndex",
      "outputs": [
        {
          "internalType": "uint256",
          "name": "",
          "type": "uint256"
        }
      ],
      "stateMutability": "view",
      "type": "function"
    },
    {
      "inputs": [
        {
          "internalType": "uint256",
          "name": "tokenId",
          "type": "uint256"
        }
      ],
      "name": "tokenURI",
      "outputs": [
        {
          "internalType": "string",
          "name": "",
          "type": "string"
        }
      ],
      "stateMutability": "view",
      "type": "function"
    },
    {
      "inputs": [],
      "name": "totalSupply",
      "outputs": [
        {
          "internalType": "uint256",
          "name": "",
          "type": "uint256"
        }
      ],
      "stateMutability": "view",
      "type": "function"
    },
    {
      "inputs": [
        {
          "internalType": "address",
          "name": "from",
          "type": "address"
        },
        {
          "internalType": "address",
          "name": "to",
          "type": "address"
        },
        {
          "internalType": "uint256",
          "name": "tokenId",
          "type": "uint256"
        }
      ],
      "name": "transferFrom",
      "outputs": [],
      "stateMutability": "nonpayable",
      "type": "function"
    },
    {
      "inputs": [
        {
          "internalType": "address",
          "name": "newOwner",
          "type": "address"
        }
      ],
      "name": "transferOwnership",
      "outputs": [],
      "stateMutability": "nonpayable",
      "type": "function"
    },
    {
      "inputs": [],
      "name": "withdraw",
      "outputs": [],
      "stateMutability": "nonpayable",
      "type": "function"
    },
    {
      "stateMutability": "payable",
      "type": "receive"
    }
  ],
  "bytecode": "0x6080604052662386f26fc10000600c55600a600e553480156200002157600080fd5b5060405162003fe738038062003fe7833981810160405281019062000047919062000442565b6040518060400160405280600881526020017f4c573350756e6b730000000000000000000000000000000000000000000000008152506040518060400160405280600481526020017f4c573350000000000000000000000000000000000000000000000000000000008152508160009080519060200190620000cb929190620001f5565b508060019080519060200190620000e4929190620001f5565b50505062000107620000fb6200012760201b60201c565b6200012f60201b60201c565b80600b90805190602001906200011f929190620001f5565b5050620004f8565b600033905090565b6000600a60009054906101000a900473ffffffffffffffffffffffffffffffffffffffff16905081600a60006101000a81548173ffffffffffffffffffffffffffffffffffffffff021916908373ffffffffffffffffffffffffffffffffffffffff1602179055508173ffffffffffffffffffffffffffffffffffffffff168173ffffffffffffffffffffffffffffffffffffffff167f8be0079c531659141344cd1fd0a4f28419497f9722a3daafe3b4186f6b6457e060405160405180910390a35050565b8280546200020390620004c2565b90600052602060002090601f01602090048101928262000227576000855562000273565b82601f106200024257805160ff191683800117855562000273565b8280016001018555821562000273579182015b828111156200027257825182559160200191906001019062000255565b5b50905062000282919062000286565b5090565b5b80821115620002a157600081600090555060010162000287565b5090565b6000604051905090565b600080fd5b600080fd5b600080fd5b600080fd5b6000601f19601f8301169050919050565b7f4e487b7100000000000000000000000000000000000000000000000000000000600052604160045260246000fd5b6200030e82620002c3565b810181811067ffffffffffffffff8211171562000330576200032f620002d4565b5b80604052505050565b600062000345620002a5565b905062000353828262000303565b919050565b600067ffffffffffffffff821115620003765762000375620002d4565b5b6200038182620002c3565b9050602081019050919050565b60005b83811015620003ae57808201518184015260208101905062000391565b83811115620003be576000848401525b50505050565b6000620003db620003d58462000358565b62000339565b905082815260208101848484011115620003fa57620003f9620002be565b5b620004078482856200038e565b509392505050565b600082601f830112620004275762000426620002b9565b5b815162000439848260208601620003c4565b91505092915050565b6000602082840312156200045b576200045a620002af565b5b600082015167ffffffffffffffff8111156200047c576200047b620002b4565b5b6200048a848285016200040f565b91505092915050565b7f4e487b7100000000000000000000000000000000000000000000000000000000600052602260045260246000fd5b60006002820490506001821680620004db57607f821691505b60208210811415620004f257620004f162000493565b5b50919050565b613adf80620005086000396000f3fe6080604052600436106101855760003560e01c80634f6ccce7116100d15780638da5cb5b1161008a578063b88d4fde11610064578063b88d4fde14610559578063c87b56dd14610582578063e985e9c5146105bf578063f2fde38b146105fc5761018c565b80638da5cb5b146104da57806395d89b4114610505578063a22cb465146105305761018c565b80634f6ccce7146103b65780635f769621146103f35780636352211e1461041e57806370a082311461045b578063714cff5614610498578063715018a6146104c35761018c565b806316c61ccc1161013e57806323b872dd1161011857806323b872dd146103105780632f745c59146103395780633ccfd60b1461037657806342842e0e1461038d5761018c565b806316c61ccc1461028f57806318160ddd146102ba578063235b6ea1146102e55761018c565b806301ffc9a71461018e57806306fdde03146101cb578063081812fc146101f6578063095ea7b3146102335780631249c58b1461025c57806316c38b3c146102665761018c565b3661018c57005b005b34801561019a57600080fd5b506101b560048036038101906101b09190612597565b610625565b6040516101c291906125df565b60405180910390f35b3480156101d757600080fd5b506101e061069f565b6040516101ed9190612693565b60405180910390f35b34801561020257600080fd5b5061021d600480360381019061021891906126eb565b610731565b60405161022a9190612759565b60405180910390f35b34801561023f57600080fd5b5061025a600480360381019061025591906127a0565b6107b6565b005b6102646108ce565b005b34801561027257600080fd5b5061028d6004803603810190610288919061280c565b6109d1565b005b34801561029b57600080fd5b506102a4610a6a565b6040516102b191906125df565b60405180910390f35b3480156102c657600080fd5b506102cf610a7d565b6040516102dc9190612848565b60405180910390f35b3480156102f157600080fd5b506102fa610a8a565b6040516103079190612848565b60405180910390f35b34801561031c57600080fd5b5061033760048036038101906103329190612863565b610a90565b005b34801561034557600080fd5b50610360600480360381019061035b91906127a0565b610af0565b60405161036d9190612848565b60405180910390f35b34801561038257600080fd5b5061038b610b95565b005b34801561039957600080fd5b506103b460048036038101906103af9190612863565b610cd3565b005b3480156103c257600080fd5b506103dd60048036038101906103d891906126eb565b610cf3565b6040516103ea9190612848565b60405180910390f35b3480156103ff57600080fd5b50610408610d64565b6040516104159190612848565b60405180910390f35b34801561042a57600080fd5b50610445600480360381019061044091906126eb565b610d6a565b6040516104529190612759565b60405180910390f35b34801561046757600080fd5b50610482600480360381019061047d91906128b6565b610e1c565b60405161048f9190612848565b60405180910390f35b3480156104a457600080fd5b506104ad610ed4565b6040516104ba9190612848565b60405180910390f35b3480156104cf57600080fd5b506104d8610eda565b005b3480156104e657600080fd5b506104ef610f62565b6040516104fc9190612759565b60405180910390f35b34801561051157600080fd5b5061051a610f8c565b6040516105279190612693565b60405180910390f35b34801561053c57600080fd5b50610557600480360381019061055291906128e3565b61101e565b005b34801561056557600080fd5b50610580600480360381019061057b9190612a58565b611034565b005b34801561058e57600080fd5b506105a960048036038101906105a491906126eb565b611096565b6040516105b69190612693565b60405180910390f35b3480156105cb57600080fd5b506105e660048036038101906105e19190612adb565b61113d565b6040516105f391906125df565b60405180910390f35b34801561060857600080fd5b50610623600480360381019061061e91906128b6565b6111d1565b005b60007f780e9d63000000000000000000000000000000000000000000000000000000007bffffffffffffffffffffffffffffffffffffffffffffffffffffffff1916827bffffffffffffffffffffffffffffffffffffffffffffffffffffffff191614806106985750610697826112c9565b5b9050919050565b6060600080546106ae90612b4a565b80601f01602080910402602001604051908101604052809291908181526020018280546106da90612b4a565b80156107275780601f106106fc57610100808354040283529160200191610727565b820191906000526020600020905b81548152906001019060200180831161070a57829003601f168201915b5050505050905090565b600061073c826113ab565b61077b576040517f08c379a000000000000000000000000000000000000000000000000000000000815260040161077290612bee565b60405180910390fd5b6004600083815260200190815260200160002060009054906101000a900473ffffffffffffffffffffffffffffffffffffffff169050919050565b60006107c182610d6a565b90508073ffffffffffffffffffffffffffffffffffffffff168373ffffffffffffffffffffffffffffffffffffffff161415610832576040517f08c379a000000000000000000000000000000000000000000000000000000000815260040161082990612c80565b60405180910390fd5b8073ffffffffffffffffffffffffffffffffffffffff16610851611417565b73ffffffffffffffffffffffffffffffffffffffff161480610880575061087f8161087a611417565b61113d565b5b6108bf576040517f08c379a00000000000000000000000000000000000000000000000000000000081526004016108b690612d12565b60405180910390fd5b6108c9838361141f565b505050565b600d60009054906101000a900460ff161561091e576040517f08c379a000000000000000000000000000000000000000000000000000000000815260040161091590612d7e565b60405180910390fd5b600e54600f5410610964576040517f08c379a000000000000000000000000000000000000000000000000000000000815260040161095b90612dea565b60405180910390fd5b600c543410156109a9576040517f08c379a00000000000000000000000000000000000000000000000000000000081526004016109a090612e56565b60405180910390fd5b6001600f60008282546109bc9190612ea5565b925050819055506109cf33600f546114d8565b565b6109d9611417565b73ffffffffffffffffffffffffffffffffffffffff166109f7610f62565b73ffffffffffffffffffffffffffffffffffffffff1614610a4d576040517f08c379a0000000000000000000000000000000000000000000000000000000008152600401610a4490612f47565b60405180910390fd5b80600d60006101000a81548160ff02191690831515021790555050565b600d60009054906101000a900460ff1681565b6000600880549050905090565b600c5481565b610aa1610a9b611417565b826114f6565b610ae0576040517f08c379a0000000000000000000000000000000000000000000000000000000008152600401610ad790612fd9565b60405180910390fd5b610aeb8383836115d4565b505050565b6000610afb83610e1c565b8210610b3c576040517f08c379a0000000000000000000000000000000000000000000000000000000008152600401610b339061306b565b60405180910390fd5b600660008473ffffffffffffffffffffffffffffffffffffffff1673ffffffffffffffffffffffffffffffffffffffff168152602001908152602001600020600083815260200190815260200160002054905092915050565b610b9d611417565b73ffffffffffffffffffffffffffffffffffffffff16610bbb610f62565b73ffffffffffffffffffffffffffffffffffffffff1614610c11576040517f08c379a0000000000000000000000000000000000000000000000000000000008152600401610c0890612f47565b60405180910390fd5b6000610c1b610f62565b9050600047905060008273ffffffffffffffffffffffffffffffffffffffff1682604051610c48906130bc565b60006040518083038185875af1925050503d8060008114610c85576040519150601f19603f3d011682016040523d82523d6000602084013e610c8a565b606091505b5050905080610cce576040517f08c379a0000000000000000000000000000000000000000000000000000000008152600401610cc59061311d565b60405180910390fd5b505050565b610cee83838360405180602001604052806000815250611034565b505050565b6000610cfd610a7d565b8210610d3e576040517f08c379a0000000000000000000000000000000000000000000000000000000008152600401610d35906131af565b60405180910390fd5b60088281548110610d5257610d516131cf565b5b90600052602060002001549050919050565b600e5481565b6000806002600084815260200190815260200160002060009054906101000a900473ffffffffffffffffffffffffffffffffffffffff169050600073ffffffffffffffffffffffffffffffffffffffff168173ffffffffffffffffffffffffffffffffffffffff161415610e13576040517f08c379a0000000000000000000000000000000000000000000000000000000008152600401610e0a90613270565b60405180910390fd5b80915050919050565b60008073ffffffffffffffffffffffffffffffffffffffff168273ffffffffffffffffffffffffffffffffffffffff161415610e8d576040517f08c379a0000000000000000000000000000000000000000000000000000000008152600401610e8490613302565b60405180910390fd5b600360008373ffffffffffffffffffffffffffffffffffffffff1673ffffffffffffffffffffffffffffffffffffffff168152602001908152602001600020549050919050565b600f5481565b610ee2611417565b73ffffffffffffffffffffffffffffffffffffffff16610f00610f62565b73ffffffffffffffffffffffffffffffffffffffff1614610f56576040517f08c379a0000000000000000000000000000000000000000000000000000000008152600401610f4d90612f47565b60405180910390fd5b610f60600061183b565b565b6000600a60009054906101000a900473ffffffffffffffffffffffffffffffffffffffff16905090565b606060018054610f9b90612b4a565b80601f0160208091040260200160405190810160405280929190818152602001828054610fc790612b4a565b80156110145780601f10610fe957610100808354040283529160200191611014565b820191906000526020600020905b815481529060010190602001808311610ff757829003601f168201915b5050505050905090565b611030611029611417565b8383611901565b5050565b61104561103f611417565b836114f6565b611084576040517f08c379a000000000000000000000000000000000000000000000000000000000815260040161107b90612fd9565b60405180910390fd5b61109084848484611a6e565b50505050565b60606110a1826113ab565b6110e0576040517f08c379a00000000000000000000000000000000000000000000000000000000081526004016110d790613394565b60405180910390fd5b60006110ea611aca565b9050600081511161110a5760405180602001604052806000815250611135565b8061111484611b5c565b60405160200161112592919061343c565b6040516020818303038152906040525b915050919050565b6000600560008473ffffffffffffffffffffffffffffffffffffffff1673ffffffffffffffffffffffffffffffffffffffff16815260200190815260200160002060008373ffffffffffffffffffffffffffffffffffffffff1673ffffffffffffffffffffffffffffffffffffffff16815260200190815260200160002060009054906101000a900460ff16905092915050565b6111d9611417565b73ffffffffffffffffffffffffffffffffffffffff166111f7610f62565b73ffffffffffffffffffffffffffffffffffffffff161461124d576040517f08c379a000000000000000000000000000000000000000000000000000000000815260040161124490612f47565b60405180910390fd5b600073ffffffffffffffffffffffffffffffffffffffff168173ffffffffffffffffffffffffffffffffffffffff1614156112bd576040517f08c379a00000000000000000000000000000000000000000000000000000000081526004016112b4906134dd565b60405180910390fd5b6112c68161183b565b50565b60007f80ac58cd000000000000000000000000000000000000000000000000000000007bffffffffffffffffffffffffffffffffffffffffffffffffffffffff1916827bffffffffffffffffffffffffffffffffffffffffffffffffffffffff1916148061139457507f5b5e139f000000000000000000000000000000000000000000000000000000007bffffffffffffffffffffffffffffffffffffffffffffffffffffffff1916827bffffffffffffffffffffffffffffffffffffffffffffffffffffffff1916145b806113a457506113a382611cbd565b5b9050919050565b60008073ffffffffffffffffffffffffffffffffffffffff166002600084815260200190815260200160002060009054906101000a900473ffffffffffffffffffffffffffffffffffffffff1673ffffffffffffffffffffffffffffffffffffffff1614159050919050565b600033905090565b816004600083815260200190815260200160002060006101000a81548173ffffffffffffffffffffffffffffffffffffffff021916908373ffffffffffffffffffffffffffffffffffffffff160217905550808273ffffffffffffffffffffffffffffffffffffffff1661149283610d6a565b73ffffffffffffffffffffffffffffffffffffffff167f8c5be1e5ebec7d5bd14f71427d1e84f3dd0314c0f7b2291e5b200ac8c7c3b92560405160405180910390a45050565b6114f2828260405180602001604052806000815250611d27565b5050565b6000611501826113ab565b611540576040517f08c379a00000000000000000000000000000000000000000000000000000000081526004016115379061356f565b60405180910390fd5b600061154b83610d6a565b90508073ffffffffffffffffffffffffffffffffffffffff168473ffffffffffffffffffffffffffffffffffffffff1614806115ba57508373ffffffffffffffffffffffffffffffffffffffff166115a284610731565b73ffffffffffffffffffffffffffffffffffffffff16145b806115cb57506115ca818561113d565b5b91505092915050565b8273ffffffffffffffffffffffffffffffffffffffff166115f482610d6a565b73ffffffffffffffffffffffffffffffffffffffff161461164a576040517f08c379a000000000000000000000000000000000000000000000000000000000815260040161164190613601565b60405180910390fd5b600073ffffffffffffffffffffffffffffffffffffffff168273ffffffffffffffffffffffffffffffffffffffff1614156116ba576040517f08c379a00000000000000000000000000000000000000000000000000000000081526004016116b190613693565b60405180910390fd5b6116c5838383611d82565b6116d060008261141f565b6001600360008573ffffffffffffffffffffffffffffffffffffffff1673ffffffffffffffffffffffffffffffffffffffff168152602001908152602001600020600082825461172091906136b3565b925050819055506001600360008473ffffffffffffffffffffffffffffffffffffffff1673ffffffffffffffffffffffffffffffffffffffff16815260200190815260200160002060008282546117779190612ea5565b92505081905550816002600083815260200190815260200160002060006101000a81548173ffffffffffffffffffffffffffffffffffffffff021916908373ffffffffffffffffffffffffffffffffffffffff160217905550808273ffffffffffffffffffffffffffffffffffffffff168473ffffffffffffffffffffffffffffffffffffffff167fddf252ad1be2c89b69c2b068fc378daa952ba7f163c4a11628f55a4df523b3ef60405160405180910390a4611836838383611e96565b505050565b6000600a60009054906101000a900473ffffffffffffffffffffffffffffffffffffffff16905081600a60006101000a81548173ffffffffffffffffffffffffffffffffffffffff021916908373ffffffffffffffffffffffffffffffffffffffff1602179055508173ffffffffffffffffffffffffffffffffffffffff168173ffffffffffffffffffffffffffffffffffffffff167f8be0079c531659141344cd1fd0a4f28419497f9722a3daafe3b4186f6b6457e060405160405180910390a35050565b8173ffffffffffffffffffffffffffffffffffffffff168373ffffffffffffffffffffffffffffffffffffffff161415611970576040517f08c379a000000000000000000000000000000000000000000000000000000000815260040161196790613733565b60405180910390fd5b80600560008573ffffffffffffffffffffffffffffffffffffffff1673ffffffffffffffffffffffffffffffffffffffff16815260200190815260200160002060008473ffffffffffffffffffffffffffffffffffffffff1673ffffffffffffffffffffffffffffffffffffffff16815260200190815260200160002060006101000a81548160ff0219169083151502179055508173ffffffffffffffffffffffffffffffffffffffff168373ffffffffffffffffffffffffffffffffffffffff167f17307eab39ab6107e8899845ad3d59bd9653f200f220920489ca2b5937696c3183604051611a6191906125df565b60405180910390a3505050565b611a798484846115d4565b611a8584848484611e9b565b611ac4576040517f08c379a0000000000000000000000000000000000000000000000000000000008152600401611abb906137c5565b60405180910390fd5b50505050565b6060600b8054611ad990612b4a565b80601f0160208091040260200160405190810160405280929190818152602001828054611b0590612b4a565b8015611b525780601f10611b2757610100808354040283529160200191611b52565b820191906000526020600020905b815481529060010190602001808311611b3557829003601f168201915b5050505050905090565b60606000821415611ba4576040518060400160405280600181526020017f30000000000000000000000000000000000000000000000000000000000000008152509050611cb8565b600082905060005b60008214611bd6578080611bbf906137e5565b915050600a82611bcf919061385d565b9150611bac565b60008167ffffffffffffffff811115611bf257611bf161292d565b5b6040519080825280601f01601f191660200182016040528015611c245781602001600182028036833780820191505090505b5090505b60008514611cb157600182611c3d91906136b3565b9150600a85611c4c919061388e565b6030611c589190612ea5565b60f81b818381518110611c6e57611c6d6131cf565b5b60200101907effffffffffffffffffffffffffffffffffffffffffffffffffffffffffffff1916908160001a905350600a85611caa919061385d565b9450611c28565b8093505050505b919050565b60007f01ffc9a7000000000000000000000000000000000000000000000000000000007bffffffffffffffffffffffffffffffffffffffffffffffffffffffff1916827bffffffffffffffffffffffffffffffffffffffffffffffffffffffff1916149050919050565b611d318383612023565b611d3e6000848484611e9b565b611d7d576040517f08c379a0000000000000000000000000000000000000000000000000000000008152600401611d74906137c5565b60405180910390fd5b505050565b611d8d8383836121fd565b600073ffffffffffffffffffffffffffffffffffffffff168373ffffffffffffffffffffffffffffffffffffffff161415611dd057611dcb81612202565b611e0f565b8173ffffffffffffffffffffffffffffffffffffffff168373ffffffffffffffffffffffffffffffffffffffff1614611e0e57611e0d838261224b565b5b5b600073ffffffffffffffffffffffffffffffffffffffff168273ffffffffffffffffffffffffffffffffffffffff161415611e5257611e4d816123b8565b611e91565b8273ffffffffffffffffffffffffffffffffffffffff168273ffffffffffffffffffffffffffffffffffffffff1614611e9057611e8f8282612489565b5b5b505050565b505050565b6000611ebc8473ffffffffffffffffffffffffffffffffffffffff16612508565b15612016578373ffffffffffffffffffffffffffffffffffffffff1663150b7a02611ee5611417565b8786866040518563ffffffff1660e01b8152600401611f079493929190613914565b6020604051808303816000875af1925050508015611f4357506040513d601f19601f82011682018060405250810190611f409190613975565b60015b611fc6573d8060008114611f73576040519150601f19603f3d011682016040523d82523d6000602084013e611f78565b606091505b50600081511415611fbe576040517f08c379a0000000000000000000000000000000000000000000000000000000008152600401611fb5906137c5565b60405180910390fd5b805181602001fd5b63150b7a0260e01b7bffffffffffffffffffffffffffffffffffffffffffffffffffffffff1916817bffffffffffffffffffffffffffffffffffffffffffffffffffffffff19161491505061201b565b600190505b949350505050565b600073ffffffffffffffffffffffffffffffffffffffff168273ffffffffffffffffffffffffffffffffffffffff161415612093576040517f08c379a000000000000000000000000000000000000000000000000000000000815260040161208a906139ee565b60405180910390fd5b61209c816113ab565b156120dc576040517f08c379a00000000000000000000000000000000000000000000000000000000081526004016120d390613a5a565b60405180910390fd5b6120e860008383611d82565b6001600360008473ffffffffffffffffffffffffffffffffffffffff1673ffffffffffffffffffffffffffffffffffffffff16815260200190815260200160002060008282546121389190612ea5565b92505081905550816002600083815260200190815260200160002060006101000a81548173ffffffffffffffffffffffffffffffffffffffff021916908373ffffffffffffffffffffffffffffffffffffffff160217905550808273ffffffffffffffffffffffffffffffffffffffff16600073ffffffffffffffffffffffffffffffffffffffff167fddf252ad1be2c89b69c2b068fc378daa952ba7f163c4a11628f55a4df523b3ef60405160405180910390a46121f960008383611e96565b5050565b505050565b6008805490506009600083815260200190815260200160002081905550600881908060018154018082558091505060019003906000526020600020016000909190919091505550565b6000600161225884610e1c565b61226291906136b3565b9050600060076000848152602001908152602001600020549050818114612347576000600660008673ffffffffffffffffffffffffffffffffffffffff1673ffffffffffffffffffffffffffffffffffffffff168152602001908152602001600020600084815260200190815260200160002054905080600660008773ffffffffffffffffffffffffffffffffffffffff1673ffffffffffffffffffffffffffffffffffffffff168152602001908152602001600020600084815260200190815260200160002081905550816007600083815260200190815260200160002081905550505b6007600084815260200190815260200160002060009055600660008573ffffffffffffffffffffffffffffffffffffffff1673ffffffffffffffffffffffffffffffffffffffff16815260200190815260200160002060008381526020019081526020016000206000905550505050565b600060016008805490506123cc91906136b3565b90506000600960008481526020019081526020016000205490506000600883815481106123fc576123fb6131cf565b5b90600052602060002001549050806008838154811061241e5761241d6131cf565b5b90600052602060002001819055508160096000838152602001908152602001600020819055506009600085815260200190815260200160002060009055600880548061246d5761246c613a7a565b5b6001900381819060005260206000200160009055905550505050565b600061249483610e1c565b905081600660008573ffffffffffffffffffffffffffffffffffffffff1673ffffffffffffffffffffffffffffffffffffffff168152602001908152602001600020600083815260200190815260200160002081905550806007600084815260200190815260200160002081905550505050565b6000808273ffffffffffffffffffffffffffffffffffffffff163b119050919050565b6000604051905090565b600080fd5b600080fd5b60007fffffffff0000000000000000000000000000000000000000000000000000000082169050919050565b6125748161253f565b811461257f57600080fd5b50565b6000813590506125918161256b565b92915050565b6000602082840312156125ad576125ac612535565b5b60006125bb84828501612582565b91505092915050565b60008115159050919050565b6125d9816125c4565b82525050565b60006020820190506125f460008301846125d0565b92915050565b600081519050919050565b600082825260208201905092915050565b60005b83811015612634578082015181840152602081019050612619565b83811115612643576000848401525b50505050565b6000601f19601f8301169050919050565b6000612665826125fa565b61266f8185612605565b935061267f818560208601612616565b61268881612649565b840191505092915050565b600060208201905081810360008301526126ad818461265a565b905092915050565b6000819050919050565b6126c8816126b5565b81146126d357600080fd5b50565b6000813590506126e5816126bf565b92915050565b60006020828403121561270157612700612535565b5b600061270f848285016126d6565b91505092915050565b600073ffffffffffffffffffffffffffffffffffffffff82169050919050565b600061274382612718565b9050919050565b61275381612738565b82525050565b600060208201905061276e600083018461274a565b92915050565b61277d81612738565b811461278857600080fd5b50565b60008135905061279a81612774565b92915050565b600080604083850312156127b7576127b6612535565b5b60006127c58582860161278b565b92505060206127d6858286016126d6565b9150509250929050565b6127e9816125c4565b81146127f457600080fd5b50565b600081359050612806816127e0565b92915050565b60006020828403121561282257612821612535565b5b6000612830848285016127f7565b91505092915050565b612842816126b5565b82525050565b600060208201905061285d6000830184612839565b92915050565b60008060006060848603121561287c5761287b612535565b5b600061288a8682870161278b565b935050602061289b8682870161278b565b92505060406128ac868287016126d6565b9150509250925092565b6000602082840312156128cc576128cb612535565b5b60006128da8482850161278b565b91505092915050565b600080604083850312156128fa576128f9612535565b5b60006129088582860161278b565b9250506020612919858286016127f7565b9150509250929050565b600080fd5b600080fd5b7f4e487b7100000000000000000000000000000000000000000000000000000000600052604160045260246000fd5b61296582612649565b810181811067ffffffffffffffff821117156129845761298361292d565b5b80604052505050565b600061299761252b565b90506129a3828261295c565b919050565b600067ffffffffffffffff8211156129c3576129c261292d565b5b6129cc82612649565b9050602081019050919050565b82818337600083830152505050565b60006129fb6129f6846129a8565b61298d565b905082815260208101848484011115612a1757612a16612928565b5b612a228482856129d9565b509392505050565b600082601f830112612a3f57612a3e612923565b5b8135612a4f8482602086016129e8565b91505092915050565b60008060008060808587031215612a7257612a71612535565b5b6000612a808782880161278b565b9450506020612a918782880161278b565b9350506040612aa2878288016126d6565b925050606085013567ffffffffffffffff811115612ac357612ac261253a565b5b612acf87828801612a2a565b91505092959194509250565b60008060408385031215612af257612af1612535565b5b6000612b008582860161278b565b9250506020612b118582860161278b565b9150509250929050565b7f4e487b7100000000000000000000000000000000000000000000000000000000600052602260045260246000fd5b60006002820490506001821680612b6257607f821691505b60208210811415612b7657612b75612b1b565b5b50919050565b7f4552433732313a20617070726f76656420717565727920666f72206e6f6e657860008201527f697374656e7420746f6b656e0000000000000000000000000000000000000000602082015250565b6000612bd8602c83612605565b9150612be382612b7c565b604082019050919050565b60006020820190508181036000830152612c0781612bcb565b9050919050565b7f4552433732313a20617070726f76616c20746f2063757272656e74206f776e6560008201527f7200000000000000000000000000000000000000000000000000000000000000602082015250565b6000612c6a602183612605565b9150612c7582612c0e565b604082019050919050565b60006020820190508181036000830152612c9981612c5d565b9050919050565b7f4552433732313a20617070726f76652063616c6c6572206973206e6f74206f7760008201527f6e6572206e6f7220617070726f76656420666f7220616c6c0000000000000000602082015250565b6000612cfc603883612605565b9150612d0782612ca0565b604082019050919050565b60006020820190508181036000830152612d2b81612cef565b9050919050565b7f436f6e74726163742063757272656e746c792070617573656400000000000000600082015250565b6000612d68601983612605565b9150612d7382612d32565b602082019050919050565b60006020820190508181036000830152612d9781612d5b565b9050919050565b7f457863656564206d6178696d756d204c573350756e6b7320737570706c790000600082015250565b6000612dd4601e83612605565b9150612ddf82612d9e565b602082019050919050565b60006020820190508181036000830152612e0381612dc7565b9050919050565b7f45746865722073656e74206973206e6f7420636f727265637400000000000000600082015250565b6000612e40601983612605565b9150612e4b82612e0a565b602082019050919050565b60006020820190508181036000830152612e6f81612e33565b9050919050565b7f4e487b7100000000000000000000000000000000000000000000000000000000600052601160045260246000fd5b6000612eb0826126b5565b9150612ebb836126b5565b9250827fffffffffffffffffffffffffffffffffffffffffffffffffffffffffffffffff03821115612ef057612eef612e76565b5b828201905092915050565b7f4f776e61626c653a2063616c6c6572206973206e6f7420746865206f776e6572600082015250565b6000612f31602083612605565b9150612f3c82612efb565b602082019050919050565b60006020820190508181036000830152612f6081612f24565b9050919050565b7f4552433732313a207472616e736665722063616c6c6572206973206e6f74206f60008201527f776e6572206e6f7220617070726f766564000000000000000000000000000000602082015250565b6000612fc3603183612605565b9150612fce82612f67565b604082019050919050565b60006020820190508181036000830152612ff281612fb6565b9050919050565b7f455243373231456e756d657261626c653a206f776e657220696e646578206f7560008201527f74206f6620626f756e6473000000000000000000000000000000000000000000602082015250565b6000613055602b83612605565b915061306082612ff9565b604082019050919050565b6000602082019050818103600083015261308481613048565b9050919050565b600081905092915050565b50565b60006130a660008361308b565b91506130b182613096565b600082019050919050565b60006130c782613099565b9150819050919050565b7f4661696c656420746f2073656e64204574686572000000000000000000000000600082015250565b6000613107601483612605565b9150613112826130d1565b602082019050919050565b60006020820190508181036000830152613136816130fa565b9050919050565b7f455243373231456e756d657261626c653a20676c6f62616c20696e646578206f60008201527f7574206f6620626f756e64730000000000000000000000000000000000000000602082015250565b6000613199602c83612605565b91506131a48261313d565b604082019050919050565b600060208201905081810360008301526131c88161318c565b9050919050565b7f4e487b7100000000000000000000000000000000000000000000000000000000600052603260045260246000fd5b7f4552433732313a206f776e657220717565727920666f72206e6f6e657869737460008201527f656e7420746f6b656e0000000000000000000000000000000000000000000000602082015250565b600061325a602983612605565b9150613265826131fe565b604082019050919050565b600060208201905081810360008301526132898161324d565b9050919050565b7f4552433732313a2062616c616e636520717565727920666f7220746865207a6560008201527f726f206164647265737300000000000000000000000000000000000000000000602082015250565b60006132ec602a83612605565b91506132f782613290565b604082019050919050565b6000602082019050818103600083015261331b816132df565b9050919050565b7f4552433732314d657461646174613a2055524920717565727920666f72206e6f60008201527f6e6578697374656e7420746f6b656e0000000000000000000000000000000000602082015250565b600061337e602f83612605565b915061338982613322565b604082019050919050565b600060208201905081810360008301526133ad81613371565b9050919050565b600081905092915050565b60006133ca826125fa565b6133d481856133b4565b93506133e4818560208601612616565b80840191505092915050565b7f2e6a736f6e000000000000000000000000000000000000000000000000000000600082015250565b60006134266005836133b4565b9150613431826133f0565b600582019050919050565b600061344882856133bf565b915061345482846133bf565b915061345f82613419565b91508190509392505050565b7f4f776e61626c653a206e6577206f776e657220697320746865207a65726f206160008201527f6464726573730000000000000000000000000000000000000000000000000000602082015250565b60006134c7602683612605565b91506134d28261346b565b604082019050919050565b600060208201905081810360008301526134f6816134ba565b9050919050565b7f4552433732313a206f70657261746f7220717565727920666f72206e6f6e657860008201527f697374656e7420746f6b656e0000000000000000000000000000000000000000602082015250565b6000613559602c83612605565b9150613564826134fd565b604082019050919050565b600060208201905081810360008301526135888161354c565b9050919050565b7f4552433732313a207472616e736665722066726f6d20696e636f72726563742060008201527f6f776e6572000000000000000000000000000000000000000000000000000000602082015250565b60006135eb602583612605565b91506135f68261358f565b604082019050919050565b6000602082019050818103600083015261361a816135de565b9050919050565b7f4552433732313a207472616e7366657220746f20746865207a65726f2061646460008201527f7265737300000000000000000000000000000000000000000000000000000000602082015250565b600061367d602483612605565b915061368882613621565b604082019050919050565b600060208201905081810360008301526136ac81613670565b9050919050565b60006136be826126b5565b91506136c9836126b5565b9250828210156136dc576136db612e76565b5b828203905092915050565b7f4552433732313a20617070726f766520746f2063616c6c657200000000000000600082015250565b600061371d601983612605565b9150613728826136e7565b602082019050919050565b6000602082019050818103600083015261374c81613710565b9050919050565b7f4552433732313a207472616e7366657220746f206e6f6e20455243373231526560008201527f63656976657220696d706c656d656e7465720000000000000000000000000000602082015250565b60006137af603283612605565b91506137ba82613753565b604082019050919050565b600060208201905081810360008301526137de816137a2565b9050919050565b60006137f0826126b5565b91507fffffffffffffffffffffffffffffffffffffffffffffffffffffffffffffffff82141561382357613822612e76565b5b600182019050919050565b7f4e487b7100000000000000000000000000000000000000000000000000000000600052601260045260246000fd5b6000613868826126b5565b9150613873836126b5565b9250826138835761388261382e565b5b828204905092915050565b6000613899826126b5565b91506138a4836126b5565b9250826138b4576138b361382e565b5b828206905092915050565b600081519050919050565b600082825260208201905092915050565b60006138e6826138bf565b6138f081856138ca565b9350613900818560208601612616565b61390981612649565b840191505092915050565b6000608082019050613929600083018761274a565b613936602083018661274a565b6139436040830185612839565b818103606083015261395581846138db565b905095945050505050565b60008151905061396f8161256b565b92915050565b60006020828403121561398b5761398a612535565b5b600061399984828501613960565b91505092915050565b7f4552433732313a206d696e7420746f20746865207a65726f2061646472657373600082015250565b60006139d8602083612605565b91506139e3826139a2565b602082019050919050565b60006020820190508181036000830152613a07816139cb565b9050919050565b7f4552433732313a20746f6b656e20616c7265616479206d696e74656400000000600082015250565b6000613a44601c83612605565b9150613a4f82613a0e565b602082019050919050565b60006020820190508181036000830152613a7381613a37565b9050919050565b7f4e487b7100000000000000000000000000000000000000000000000000000000600052603160045260246000fdfea26469706673582212207c745c9fc7a5c72df3d9772eae51545f5fc327304e10e3f2b110adc0834657a464736f6c634300080a0033",
  "linkReferences": {},
  "deployedLinkReferences": {}
}