{
  "_format": "hh-sol-artifact-1",
  "contractName": "CryptoDevs",
  "sourceName": "contracts/CryptoDevs.sol",
  "abi": [
    {
      "inputs": [
        {
          "internalType": "string",
          "name": "baseURI",
          "type": "string"
        },
        {
          "internalType": "address",
          "name": "whitelistContract",
          "type": "address"
        }
      ],
      "stateMutability": "nonpayable",
      "type": "constructor"
    },
    {
      "anonymous": false,
      "inputs": [
        {
          "indexed": true,
          "internalType": "address",
          "name": "owner",
          "type": "address"
        },
        {
          "indexed": true,
          "internalType": "address",
          "name": "approved",
          "type": "address"
        },
        {
          "indexed": true,
          "internalType": "uint256",
          "name": "tokenId",
          "type": "uint256"
        }
      ],
      "name": "Approval",
      "type": "event"
    },
    {
      "anonymous": false,
      "inputs": [
        {
          "indexed": true,
          "internalType": "address",
          "name": "owner",
          "type": "address"
        },
        {
          "indexed": true,
          "internalType": "address",
          "name": "operator",
          "type": "address"
        },
        {
          "indexed": false,
          "internalType": "bool",
          "name": "approved",
          "type": "bool"
        }
      ],
      "name": "ApprovalForAll",
      "type": "event"
    },
    {
      "anonymous": false,
      "inputs": [
        {
          "indexed": true,
          "internalType": "address",
          "name": "previousOwner",
          "type": "address"
        },
        {
          "indexed": true,
          "internalType": "address",
          "name": "newOwner",
          "type": "address"
        }
      ],
      "name": "OwnershipTransferred",
      "type": "event"
    },
    {
      "anonymous": false,
      "inputs": [
        {
          "indexed": true,
          "internalType": "address",
          "name": "from",
          "type": "address"
        },
        {
          "indexed": true,
          "internalType": "address",
          "name": "to",
          "type": "address"
        },
        {
          "indexed": true,
          "internalType": "uint256",
          "name": "tokenId",
          "type": "uint256"
        }
      ],
      "name": "Transfer",
      "type": "event"
    },
    {
      "stateMutability": "payable",
      "type": "fallback"
    },
    {
      "inputs": [],
      "name": "_paused",
      "outputs": [
        {
          "internalType": "bool",
          "name": "",
          "type": "bool"
        }
      ],
      "stateMutability": "view",
      "type": "function"
    },
    {
      "inputs": [],
      "name": "_price",
      "outputs": [
        {
          "internalType": "uint256",
          "name": "",
          "type": "uint256"
        }
      ],
      "stateMutability": "view",
      "type": "function"
    },
    {
      "inputs": [
        {
          "internalType": "address",
          "name": "to",
          "type": "address"
        },
        {
          "internalType": "uint256",
          "name": "tokenId",
          "type": "uint256"
        }
      ],
      "name": "approve",
      "outputs": [],
      "stateMutability": "nonpayable",
      "type": "function"
    },
    {
      "inputs": [
        {
          "internalType": "address",
          "name": "owner",
          "type": "address"
        }
      ],
      "name": "balanceOf",
      "outputs": [
        {
          "internalType": "uint256",
          "name": "",
          "type": "uint256"
        }
      ],
      "stateMutability": "view",
      "type": "function"
    },
    {
      "inputs": [
        {
          "internalType": "uint256",
          "name": "tokenId",
          "type": "uint256"
        }
      ],
      "name": "getApproved",
      "outputs": [
        {
          "internalType": "address",
          "name": "",
          "type": "address"
        }
      ],
      "stateMutability": "view",
      "type": "function"
    },
    {
      "inputs": [
        {
          "internalType": "address",
          "name": "owner",
          "type": "address"
        },
        {
          "internalType": "address",
          "name": "operator",
          "type": "address"
        }
      ],
      "name": "isApprovedForAll",
      "outputs": [
        {
          "internalType": "bool",
          "name": "",
          "type": "bool"
        }
      ],
      "stateMutability": "view",
      "type": "function"
    },
    {
      "inputs": [],
      "name": "maxTokenIds",
      "outputs": [
        {
          "internalType": "uint256",
          "name": "",
          "type": "uint256"
        }
      ],
      "stateMutability": "view",
      "type": "function"
    },
    {
      "inputs": [],
      "name": "mint",
      "outputs": [],
      "stateMutability": "payable",
      "type": "function"
    },
    {
      "inputs": [],
      "name": "name",
      "outputs": [
        {
          "internalType": "string",
          "name": "",
          "type": "string"
        }
      ],
      "stateMutability": "view",
      "type": "function"
    },
    {
      "inputs": [],
      "name": "owner",
      "outputs": [
        {
          "internalType": "address",
          "name": "",
          "type": "address"
        }
      ],
      "stateMutability": "view",
      "type": "function"
    },
    {
      "inputs": [
        {
          "internalType": "uint256",
          "name": "tokenId",
          "type": "uint256"
        }
      ],
      "name": "ownerOf",
      "outputs": [
        {
          "internalType": "address",
          "name": "",
          "type": "address"
        }
      ],
      "stateMutability": "view",
      "type": "function"
    },
    {
      "inputs": [],
      "name": "presaleEnded",
      "outputs": [
        {
          "internalType": "uint256",
          "name": "",
          "type": "uint256"
        }
      ],
      "stateMutability": "view",
      "type": "function"
    },
    {
      "inputs": [],
      "name": "presaleMint",
      "outputs": [],
      "stateMutability": "payable",
      "type": "function"
    },
    {
      "inputs": [],
      "name": "presaleStarted",
      "outputs": [
        {
          "internalType": "bool",
          "name": "",
          "type": "bool"
        }
      ],
      "stateMutability": "view",
      "type": "function"
    },
    {
      "inputs": [],
      "name": "renounceOwnership",
      "outputs": [],
      "stateMutability": "nonpayable",
      "type": "function"
    },
    {
      "inputs": [
        {
          "internalType": "address",
          "name": "from",
          "type": "address"
        },
        {
          "internalType": "address",
          "name": "to",
          "type": "address"
        },
        {
          "internalType": "uint256",
          "name": "tokenId",
          "type": "uint256"
        }
      ],
      "name": "safeTransferFrom",
      "outputs": [],
      "stateMutability": "nonpayable",
      "type": "function"
    },
    {
      "inputs": [
        {
          "internalType": "address",
          "name": "from",
          "type": "address"
        },
        {
          "internalType": "address",
          "name": "to",
          "type": "address"
        },
        {
          "internalType": "uint256",
          "name": "tokenId",
          "type": "uint256"
        },
        {
          "internalType": "bytes",
          "name": "_data",
          "type": "bytes"
        }
      ],
      "name": "safeTransferFrom",
      "outputs": [],
      "stateMutability": "nonpayable",
      "type": "function"
    },
    {
      "inputs": [
        {
          "internalType": "address",
          "name": "operator",
          "type": "address"
        },
        {
          "internalType": "bool",
          "name": "approved",
          "type": "bool"
        }
      ],
      "name": "setApprovalForAll",
      "outputs": [],
      "stateMutability": "nonpayable",
      "type": "function"
    },
    {
      "inputs": [
        {
          "internalType": "bool",
          "name": "val",
          "type": "bool"
        }
      ],
      "name": "setPaused",
      "outputs": [],
      "stateMutability": "nonpayable",
      "type": "function"
    },
    {
      "inputs": [],
      "name": "startPresale",
      "outputs": [],
      "stateMutability": "nonpayable",
      "type": "function"
    },
    {
      "inputs": [
        {
          "internalType": "bytes4",
          "name": "interfaceId",
          "type": "bytes4"
        }
      ],
      "name": "supportsInterface",
      "outputs": [
        {
          "internalType": "bool",
          "name": "",
          "type": "bool"
        }
      ],
      "stateMutability": "view",
      "type": "function"
    },
    {
      "inputs": [],
      "name": "symbol",
      "outputs": [
        {
          "internalType": "string",
          "name": "",
          "type": "string"
        }
      ],
      "stateMutability": "view",
      "type": "function"
    },
    {
      "inputs": [
        {
          "internalType": "uint256",
          "name": "index",
          "type": "uint256"
        }
      ],
      "name": "tokenByIndex",
      "outputs": [
        {
          "internalType": "uint256",
          "name": "",
          "type": "uint256"
        }
      ],
      "stateMutability": "view",
      "type": "function"
    },
    {
      "inputs": [],
      "name": "tokenIds",
      "outputs": [
        {
          "internalType": "uint256",
          "name": "",
          "type": "uint256"
        }
      ],
      "stateMutability": "view",
      "type": "function"
    },
    {
      "inputs": [
        {
          "internalType": "address",
          "name": "owner",
          "type": "address"
        },
        {
          "internalType": "uint256",
          "name": "index",
          "type": "uint256"
        }
      ],
      "name": "tokenOfOwnerByIndex",
      "outputs": [
        {
          "internalType": "uint256",
          "name": "",
          "type": "uint256"
        }
      ],
      "stateMutability": "view",
      "type": "function"
    },
    {
      "inputs": [
        {
          "internalType": "uint256",
          "name": "tokenId",
          "type": "uint256"
        }
      ],
      "name": "tokenURI",
      "outputs": [
        {
          "internalType": "string",
          "name": "",
          "type": "string"
        }
      ],
      "stateMutability": "view",
      "type": "function"
    },
    {
      "inputs": [],
      "name": "totalSupply",
      "outputs": [
        {
          "internalType": "uint256",
          "name": "",
          "type": "uint256"
        }
      ],
      "stateMutability": "view",
      "type": "function"
    },
    {
      "inputs": [
        {
          "internalType": "address",
          "name": "from",
          "type": "address"
        },
        {
          "internalType": "address",
          "name": "to",
          "type": "address"
        },
        {
          "internalType": "uint256",
          "name": "tokenId",
          "type": "uint256"
        }
      ],
      "name": "transferFrom",
      "outputs": [],
      "stateMutability": "nonpayable",
      "type": "function"
    },
    {
      "inputs": [
        {
          "internalType": "address",
          "name": "newOwner",
          "type": "address"
        }
      ],
      "name": "transferOwnership",
      "outputs": [],
      "stateMutability": "nonpayable",
      "type": "function"
    },
    {
      "inputs": [],
      "name": "withdraw",
      "outputs": [],
      "stateMutability": "nonpayable",
      "type": "function"
    },
    {
      "stateMutability": "payable",
      "type": "receive"
    }
  ],
  "bytecode": "0x6080604052662386f26fc10000600c556014600e553480156200002157600080fd5b50604051620046aa380380620046aa8339818101604052810190620000479190620004e9565b6040518060400160405280600b81526020017f43727970746f20446576730000000000000000000000000000000000000000008152506040518060400160405280600281526020017f43440000000000000000000000000000000000000000000000000000000000008152508160009080519060200190620000cb92919062000237565b508060019080519060200190620000e492919062000237565b50505062000107620000fb6200016960201b60201c565b6200017160201b60201c565b81600b90805190602001906200011f92919062000237565b5080601060006101000a81548173ffffffffffffffffffffffffffffffffffffffff021916908373ffffffffffffffffffffffffffffffffffffffff1602179055505050620005b4565b600033905090565b6000600a60009054906101000a900473ffffffffffffffffffffffffffffffffffffffff16905081600a60006101000a81548173ffffffffffffffffffffffffffffffffffffffff021916908373ffffffffffffffffffffffffffffffffffffffff1602179055508173ffffffffffffffffffffffffffffffffffffffff168173ffffffffffffffffffffffffffffffffffffffff167f8be0079c531659141344cd1fd0a4f28419497f9722a3daafe3b4186f6b6457e060405160405180910390a35050565b82805462000245906200057e565b90600052602060002090601f016020900481019282620002695760008555620002b5565b82601f106200028457805160ff1916838001178555620002b5565b82800160010185558215620002b5579182015b82811115620002b457825182559160200191906001019062000297565b5b509050620002c49190620002c8565b5090565b5b80821115620002e3576000816000905550600101620002c9565b5090565b6000604051905090565b600080fd5b600080fd5b600080fd5b600080fd5b6000601f19601f8301169050919050565b7f4e487b7100000000000000000000000000000000000000000000000000000000600052604160045260246000fd5b620003508262000305565b810181811067ffffffffffffffff8211171562000372576200037162000316565b5b80604052505050565b600062000387620002e7565b905062000395828262000345565b919050565b600067ffffffffffffffff821115620003b857620003b762000316565b5b620003c38262000305565b9050602081019050919050565b60005b83811015620003f0578082015181840152602081019050620003d3565b8381111562000400576000848401525b50505050565b60006200041d62000417846200039a565b6200037b565b9050828152602081018484840111156200043c576200043b62000300565b5b62000449848285620003d0565b509392505050565b600082601f830112620004695762000468620002fb565b5b81516200047b84826020860162000406565b91505092915050565b600073ffffffffffffffffffffffffffffffffffffffff82169050919050565b6000620004b18262000484565b9050919050565b620004c381620004a4565b8114620004cf57600080fd5b50565b600081519050620004e381620004b8565b92915050565b60008060408385031215620005035762000502620002f1565b5b600083015167ffffffffffffffff811115620005245762000523620002f6565b5b620005328582860162000451565b92505060206200054585828601620004d2565b9150509250929050565b7f4e487b7100000000000000000000000000000000000000000000000000000000600052602260045260246000fd5b600060028204905060018216806200059757607f821691505b60208210811415620005ae57620005ad6200054f565b5b50919050565b6140e680620005c46000396000f3fe6080604052600436106101d15760003560e01c80634f6ccce7116100f75780638da5cb5b11610095578063c87b56dd11610064578063c87b56dd1461061a578063e580b2b014610657578063e985e9c514610682578063f2fde38b146106bf576101d8565b80638da5cb5b1461057257806395d89b411461059d578063a22cb465146105c8578063b88d4fde146105f1576101d8565b80636352211e116100d15780636352211e146104b657806370a08231146104f3578063714cff5614610530578063715018a61461055b576101d8565b80634f6ccce71461044457806359533d6c146104815780635f7696211461048b576101d8565b806316c38b3c1161016f57806323b872dd1161013e57806323b872dd1461039e5780632f745c59146103c75780633ccfd60b1461040457806342842e0e1461041b576101d8565b806316c38b3c146102f457806316c61ccc1461031d57806318160ddd14610348578063235b6ea114610373576101d8565b806306fdde03116101ab57806306fdde0314610259578063081812fc14610284578063095ea7b3146102c15780631249c58b146102ea576101d8565b806301ffc9a7146101da57806304549d6f1461021757806304c98b2b14610242576101d8565b366101d857005b005b3480156101e657600080fd5b5061020160048036038101906101fc91906129b7565b6106e8565b60405161020e91906129ff565b60405180910390f35b34801561022357600080fd5b5061022c610762565b60405161023991906129ff565b60405180910390f35b34801561024e57600080fd5b50610257610775565b005b34801561026557600080fd5b5061026e610822565b60405161027b9190612ab3565b60405180910390f35b34801561029057600080fd5b506102ab60048036038101906102a69190612b0b565b6108b4565b6040516102b89190612b79565b60405180910390f35b3480156102cd57600080fd5b506102e860048036038101906102e39190612bc0565b610939565b005b6102f2610a51565b005b34801561030057600080fd5b5061031b60048036038101906103169190612c2c565b610bb1565b005b34801561032957600080fd5b50610332610c4a565b60405161033f91906129ff565b60405180910390f35b34801561035457600080fd5b5061035d610c5d565b60405161036a9190612c68565b60405180910390f35b34801561037f57600080fd5b50610388610c6a565b6040516103959190612c68565b60405180910390f35b3480156103aa57600080fd5b506103c560048036038101906103c09190612c83565b610c70565b005b3480156103d357600080fd5b506103ee60048036038101906103e99190612bc0565b610cd0565b6040516103fb9190612c68565b60405180910390f35b34801561041057600080fd5b50610419610d75565b005b34801561042757600080fd5b50610442600480360381019061043d9190612c83565b610eb3565b005b34801561045057600080fd5b5061046b60048036038101906104669190612b0b565b610ed3565b6040516104789190612c68565b60405180910390f35b610489610f44565b005b34801561049757600080fd5b506104a061117e565b6040516104ad9190612c68565b60405180910390f35b3480156104c257600080fd5b506104dd60048036038101906104d89190612b0b565b611184565b6040516104ea9190612b79565b60405180910390f35b3480156104ff57600080fd5b5061051a60048036038101906105159190612cd6565b611236565b6040516105279190612c68565b60405180910390f35b34801561053c57600080fd5b506105456112ee565b6040516105529190612c68565b60405180910390f35b34801561056757600080fd5b506105706112f4565b005b34801561057e57600080fd5b5061058761137c565b6040516105949190612b79565b60405180910390f35b3480156105a957600080fd5b506105b26113a6565b6040516105bf9190612ab3565b60405180910390f35b3480156105d457600080fd5b506105ef60048036038101906105ea9190612d03565b611438565b005b3480156105fd57600080fd5b5061061860048036038101906106139190612e78565b61144e565b005b34801561062657600080fd5b50610641600480360381019061063c9190612b0b565b6114b0565b60405161064e9190612ab3565b60405180910390f35b34801561066357600080fd5b5061066c611557565b6040516106799190612c68565b60405180910390f35b34801561068e57600080fd5b506106a960048036038101906106a49190612efb565b61155d565b6040516106b691906129ff565b60405180910390f35b3480156106cb57600080fd5b506106e660048036038101906106e19190612cd6565b6115f1565b005b60007f780e9d63000000000000000000000000000000000000000000000000000000007bffffffffffffffffffffffffffffffffffffffffffffffffffffffff1916827bffffffffffffffffffffffffffffffffffffffffffffffffffffffff1916148061075b575061075a826116e9565b5b9050919050565b601060149054906101000a900460ff1681565b61077d6117cb565b73ffffffffffffffffffffffffffffffffffffffff1661079b61137c565b73ffffffffffffffffffffffffffffffffffffffff16146107f1576040517f08c379a00000000000000000000000000000000000000000000000000000000081526004016107e890612f87565b60405180910390fd5b6001601060146101000a81548160ff02191690831515021790555061012c4261081a9190612fd6565b601181905550565b6060600080546108319061305b565b80601f016020809104026020016040519081016040528092919081815260200182805461085d9061305b565b80156108aa5780601f1061087f576101008083540402835291602001916108aa565b820191906000526020600020905b81548152906001019060200180831161088d57829003601f168201915b5050505050905090565b60006108bf826117d3565b6108fe576040517f08c379a00000000000000000000000000000000000000000000000000000000081526004016108f5906130ff565b60405180910390fd5b6004600083815260200190815260200160002060009054906101000a900473ffffffffffffffffffffffffffffffffffffffff169050919050565b600061094482611184565b90508073ffffffffffffffffffffffffffffffffffffffff168373ffffffffffffffffffffffffffffffffffffffff1614156109b5576040517f08c379a00000000000000000000000000000000000000000000000000000000081526004016109ac90613191565b60405180910390fd5b8073ffffffffffffffffffffffffffffffffffffffff166109d46117cb565b73ffffffffffffffffffffffffffffffffffffffff161480610a035750610a02816109fd6117cb565b61155d565b5b610a42576040517f08c379a0000000000000000000000000000000000000000000000000000000008152600401610a3990613223565b60405180910390fd5b610a4c838361183f565b505050565b600d60009054906101000a900460ff1615610aa1576040517f08c379a0000000000000000000000000000000000000000000000000000000008152600401610a989061328f565b60405180910390fd5b601060149054906101000a900460ff168015610abf57506011544210155b610afe576040517f08c379a0000000000000000000000000000000000000000000000000000000008152600401610af5906132fb565b60405180910390fd5b600e54600f5410610b44576040517f08c379a0000000000000000000000000000000000000000000000000000000008152600401610b3b9061338d565b60405180910390fd5b600c54341015610b89576040517f08c379a0000000000000000000000000000000000000000000000000000000008152600401610b80906133f9565b60405180910390fd5b6001600f6000828254610b9c9190612fd6565b92505081905550610baf33600f546118f8565b565b610bb96117cb565b73ffffffffffffffffffffffffffffffffffffffff16610bd761137c565b73ffffffffffffffffffffffffffffffffffffffff1614610c2d576040517f08c379a0000000000000000000000000000000000000000000000000000000008152600401610c2490612f87565b60405180910390fd5b80600d60006101000a81548160ff02191690831515021790555050565b600d60009054906101000a900460ff1681565b6000600880549050905090565b600c5481565b610c81610c7b6117cb565b82611916565b610cc0576040517f08c379a0000000000000000000000000000000000000000000000000000000008152600401610cb79061348b565b60405180910390fd5b610ccb8383836119f4565b505050565b6000610cdb83611236565b8210610d1c576040517f08c379a0000000000000000000000000000000000000000000000000000000008152600401610d139061351d565b60405180910390fd5b600660008473ffffffffffffffffffffffffffffffffffffffff1673ffffffffffffffffffffffffffffffffffffffff168152602001908152602001600020600083815260200190815260200160002054905092915050565b610d7d6117cb565b73ffffffffffffffffffffffffffffffffffffffff16610d9b61137c565b73ffffffffffffffffffffffffffffffffffffffff1614610df1576040517f08c379a0000000000000000000000000000000000000000000000000000000008152600401610de890612f87565b60405180910390fd5b6000610dfb61137c565b9050600047905060008273ffffffffffffffffffffffffffffffffffffffff1682604051610e289061356e565b60006040518083038185875af1925050503d8060008114610e65576040519150601f19603f3d011682016040523d82523d6000602084013e610e6a565b606091505b5050905080610eae576040517f08c379a0000000000000000000000000000000000000000000000000000000008152600401610ea5906135cf565b60405180910390fd5b505050565b610ece8383836040518060200160405280600081525061144e565b505050565b6000610edd610c5d565b8210610f1e576040517f08c379a0000000000000000000000000000000000000000000000000000000008152600401610f1590613661565b60405180910390fd5b60088281548110610f3257610f31613681565b5b90600052602060002001549050919050565b600d60009054906101000a900460ff1615610f94576040517f08c379a0000000000000000000000000000000000000000000000000000000008152600401610f8b9061328f565b60405180910390fd5b601060149054906101000a900460ff168015610fb1575060115442105b610ff0576040517f08c379a0000000000000000000000000000000000000000000000000000000008152600401610fe7906136fc565b60405180910390fd5b601060009054906101000a900473ffffffffffffffffffffffffffffffffffffffff1673ffffffffffffffffffffffffffffffffffffffff166306c933d8336040518263ffffffff1660e01b815260040161104b9190612b79565b602060405180830381865afa158015611068573d6000803e3d6000fd5b505050506040513d601f19601f8201168201806040525081019061108c9190613731565b6110cb576040517f08c379a00000000000000000000000000000000000000000000000000000000081526004016110c2906137aa565b60405180910390fd5b600e54600f5410611111576040517f08c379a00000000000000000000000000000000000000000000000000000000081526004016111089061383c565b60405180910390fd5b600c54341015611156576040517f08c379a000000000000000000000000000000000000000000000000000000000815260040161114d906133f9565b60405180910390fd5b6001600f60008282546111699190612fd6565b9250508190555061117c33600f546118f8565b565b600e5481565b6000806002600084815260200190815260200160002060009054906101000a900473ffffffffffffffffffffffffffffffffffffffff169050600073ffffffffffffffffffffffffffffffffffffffff168173ffffffffffffffffffffffffffffffffffffffff16141561122d576040517f08c379a0000000000000000000000000000000000000000000000000000000008152600401611224906138ce565b60405180910390fd5b80915050919050565b60008073ffffffffffffffffffffffffffffffffffffffff168273ffffffffffffffffffffffffffffffffffffffff1614156112a7576040517f08c379a000000000000000000000000000000000000000000000000000000000815260040161129e90613960565b60405180910390fd5b600360008373ffffffffffffffffffffffffffffffffffffffff1673ffffffffffffffffffffffffffffffffffffffff168152602001908152602001600020549050919050565b600f5481565b6112fc6117cb565b73ffffffffffffffffffffffffffffffffffffffff1661131a61137c565b73ffffffffffffffffffffffffffffffffffffffff1614611370576040517f08c379a000000000000000000000000000000000000000000000000000000000815260040161136790612f87565b60405180910390fd5b61137a6000611c5b565b565b6000600a60009054906101000a900473ffffffffffffffffffffffffffffffffffffffff16905090565b6060600180546113b59061305b565b80601f01602080910402602001604051908101604052809291908181526020018280546113e19061305b565b801561142e5780601f106114035761010080835404028352916020019161142e565b820191906000526020600020905b81548152906001019060200180831161141157829003601f168201915b5050505050905090565b61144a6114436117cb565b8383611d21565b5050565b61145f6114596117cb565b83611916565b61149e576040517f08c379a00000000000000000000000000000000000000000000000000000000081526004016114959061348b565b60405180910390fd5b6114aa84848484611e8e565b50505050565b60606114bb826117d3565b6114fa576040517f08c379a00000000000000000000000000000000000000000000000000000000081526004016114f1906139f2565b60405180910390fd5b6000611504611eea565b90506000815111611524576040518060200160405280600081525061154f565b8061152e84611f7c565b60405160200161153f929190613a4e565b6040516020818303038152906040525b915050919050565b60115481565b6000600560008473ffffffffffffffffffffffffffffffffffffffff1673ffffffffffffffffffffffffffffffffffffffff16815260200190815260200160002060008373ffffffffffffffffffffffffffffffffffffffff1673ffffffffffffffffffffffffffffffffffffffff16815260200190815260200160002060009054906101000a900460ff16905092915050565b6115f96117cb565b73ffffffffffffffffffffffffffffffffffffffff1661161761137c565b73ffffffffffffffffffffffffffffffffffffffff161461166d576040517f08c379a000000000000000000000000000000000000000000000000000000000815260040161166490612f87565b60405180910390fd5b600073ffffffffffffffffffffffffffffffffffffffff168173ffffffffffffffffffffffffffffffffffffffff1614156116dd576040517f08c379a00000000000000000000000000000000000000000000000000000000081526004016116d490613ae4565b60405180910390fd5b6116e681611c5b565b50565b60007f80ac58cd000000000000000000000000000000000000000000000000000000007bffffffffffffffffffffffffffffffffffffffffffffffffffffffff1916827bffffffffffffffffffffffffffffffffffffffffffffffffffffffff191614806117b457507f5b5e139f000000000000000000000000000000000000000000000000000000007bffffffffffffffffffffffffffffffffffffffffffffffffffffffff1916827bffffffffffffffffffffffffffffffffffffffffffffffffffffffff1916145b806117c457506117c3826120dd565b5b9050919050565b600033905090565b60008073ffffffffffffffffffffffffffffffffffffffff166002600084815260200190815260200160002060009054906101000a900473ffffffffffffffffffffffffffffffffffffffff1673ffffffffffffffffffffffffffffffffffffffff1614159050919050565b816004600083815260200190815260200160002060006101000a81548173ffffffffffffffffffffffffffffffffffffffff021916908373ffffffffffffffffffffffffffffffffffffffff160217905550808273ffffffffffffffffffffffffffffffffffffffff166118b283611184565b73ffffffffffffffffffffffffffffffffffffffff167f8c5be1e5ebec7d5bd14f71427d1e84f3dd0314c0f7b2291e5b200ac8c7c3b92560405160405180910390a45050565b611912828260405180602001604052806000815250612147565b5050565b6000611921826117d3565b611960576040517f08c379a000000000000000000000000000000000000000000000000000000000815260040161195790613b76565b60405180910390fd5b600061196b83611184565b90508073ffffffffffffffffffffffffffffffffffffffff168473ffffffffffffffffffffffffffffffffffffffff1614806119da57508373ffffffffffffffffffffffffffffffffffffffff166119c2846108b4565b73ffffffffffffffffffffffffffffffffffffffff16145b806119eb57506119ea818561155d565b5b91505092915050565b8273ffffffffffffffffffffffffffffffffffffffff16611a1482611184565b73ffffffffffffffffffffffffffffffffffffffff1614611a6a576040517f08c379a0000000000000000000000000000000000000000000000000000000008152600401611a6190613c08565b60405180910390fd5b600073ffffffffffffffffffffffffffffffffffffffff168273ffffffffffffffffffffffffffffffffffffffff161415611ada576040517f08c379a0000000000000000000000000000000000000000000000000000000008152600401611ad190613c9a565b60405180910390fd5b611ae58383836121a2565b611af060008261183f565b6001600360008573ffffffffffffffffffffffffffffffffffffffff1673ffffffffffffffffffffffffffffffffffffffff1681526020019081526020016000206000828254611b409190613cba565b925050819055506001600360008473ffffffffffffffffffffffffffffffffffffffff1673ffffffffffffffffffffffffffffffffffffffff1681526020019081526020016000206000828254611b979190612fd6565b92505081905550816002600083815260200190815260200160002060006101000a81548173ffffffffffffffffffffffffffffffffffffffff021916908373ffffffffffffffffffffffffffffffffffffffff160217905550808273ffffffffffffffffffffffffffffffffffffffff168473ffffffffffffffffffffffffffffffffffffffff167fddf252ad1be2c89b69c2b068fc378daa952ba7f163c4a11628f55a4df523b3ef60405160405180910390a4611c568383836122b6565b505050565b6000600a60009054906101000a900473ffffffffffffffffffffffffffffffffffffffff16905081600a60006101000a81548173ffffffffffffffffffffffffffffffffffffffff021916908373ffffffffffffffffffffffffffffffffffffffff1602179055508173ffffffffffffffffffffffffffffffffffffffff168173ffffffffffffffffffffffffffffffffffffffff167f8be0079c531659141344cd1fd0a4f28419497f9722a3daafe3b4186f6b6457e060405160405180910390a35050565b8173ffffffffffffffffffffffffffffffffffffffff168373ffffffffffffffffffffffffffffffffffffffff161415611d90576040517f08c379a0000000000000000000000000000000000000000000000000000000008152600401611d8790613d3a565b60405180910390fd5b80600560008573ffffffffffffffffffffffffffffffffffffffff1673ffffffffffffffffffffffffffffffffffffffff16815260200190815260200160002060008473ffffffffffffffffffffffffffffffffffffffff1673ffffffffffffffffffffffffffffffffffffffff16815260200190815260200160002060006101000a81548160ff0219169083151502179055508173ffffffffffffffffffffffffffffffffffffffff168373ffffffffffffffffffffffffffffffffffffffff167f17307eab39ab6107e8899845ad3d59bd9653f200f220920489ca2b5937696c3183604051611e8191906129ff565b60405180910390a3505050565b611e998484846119f4565b611ea5848484846122bb565b611ee4576040517f08c379a0000000000000000000000000000000000000000000000000000000008152600401611edb90613dcc565b60405180910390fd5b50505050565b6060600b8054611ef99061305b565b80601f0160208091040260200160405190810160405280929190818152602001828054611f259061305b565b8015611f725780601f10611f4757610100808354040283529160200191611f72565b820191906000526020600020905b815481529060010190602001808311611f5557829003601f168201915b5050505050905090565b60606000821415611fc4576040518060400160405280600181526020017f300000000000000000000000000000000000000000000000000000000000000081525090506120d8565b600082905060005b60008214611ff6578080611fdf90613dec565b915050600a82611fef9190613e64565b9150611fcc565b60008167ffffffffffffffff81111561201257612011612d4d565b5b6040519080825280601f01601f1916602001820160405280156120445781602001600182028036833780820191505090505b5090505b600085146120d15760018261205d9190613cba565b9150600a8561206c9190613e95565b60306120789190612fd6565b60f81b81838151811061208e5761208d613681565b5b60200101907effffffffffffffffffffffffffffffffffffffffffffffffffffffffffffff1916908160001a905350600a856120ca9190613e64565b9450612048565b8093505050505b919050565b60007f01ffc9a7000000000000000000000000000000000000000000000000000000007bffffffffffffffffffffffffffffffffffffffffffffffffffffffff1916827bffffffffffffffffffffffffffffffffffffffffffffffffffffffff1916149050919050565b6121518383612443565b61215e60008484846122bb565b61219d576040517f08c379a000000000000000000000000000000000000000000000000000000000815260040161219490613dcc565b60405180910390fd5b505050565b6121ad83838361261d565b600073ffffffffffffffffffffffffffffffffffffffff168373ffffffffffffffffffffffffffffffffffffffff1614156121f0576121eb81612622565b61222f565b8173ffffffffffffffffffffffffffffffffffffffff168373ffffffffffffffffffffffffffffffffffffffff161461222e5761222d838261266b565b5b5b600073ffffffffffffffffffffffffffffffffffffffff168273ffffffffffffffffffffffffffffffffffffffff1614156122725761226d816127d8565b6122b1565b8273ffffffffffffffffffffffffffffffffffffffff168273ffffffffffffffffffffffffffffffffffffffff16146122b0576122af82826128a9565b5b5b505050565b505050565b60006122dc8473ffffffffffffffffffffffffffffffffffffffff16612928565b15612436578373ffffffffffffffffffffffffffffffffffffffff1663150b7a026123056117cb565b8786866040518563ffffffff1660e01b81526004016123279493929190613f1b565b6020604051808303816000875af192505050801561236357506040513d601f19601f820116820180604052508101906123609190613f7c565b60015b6123e6573d8060008114612393576040519150601f19603f3d011682016040523d82523d6000602084013e612398565b606091505b506000815114156123de576040517f08c379a00000000000000000000000000000000000000000000000000000000081526004016123d590613dcc565b60405180910390fd5b805181602001fd5b63150b7a0260e01b7bffffffffffffffffffffffffffffffffffffffffffffffffffffffff1916817bffffffffffffffffffffffffffffffffffffffffffffffffffffffff19161491505061243b565b600190505b949350505050565b600073ffffffffffffffffffffffffffffffffffffffff168273ffffffffffffffffffffffffffffffffffffffff1614156124b3576040517f08c379a00000000000000000000000000000000000000000000000000000000081526004016124aa90613ff5565b60405180910390fd5b6124bc816117d3565b156124fc576040517f08c379a00000000000000000000000000000000000000000000000000000000081526004016124f390614061565b60405180910390fd5b612508600083836121a2565b6001600360008473ffffffffffffffffffffffffffffffffffffffff1673ffffffffffffffffffffffffffffffffffffffff16815260200190815260200160002060008282546125589190612fd6565b92505081905550816002600083815260200190815260200160002060006101000a81548173ffffffffffffffffffffffffffffffffffffffff021916908373ffffffffffffffffffffffffffffffffffffffff160217905550808273ffffffffffffffffffffffffffffffffffffffff16600073ffffffffffffffffffffffffffffffffffffffff167fddf252ad1be2c89b69c2b068fc378daa952ba7f163c4a11628f55a4df523b3ef60405160405180910390a4612619600083836122b6565b5050565b505050565b6008805490506009600083815260200190815260200160002081905550600881908060018154018082558091505060019003906000526020600020016000909190919091505550565b6000600161267884611236565b6126829190613cba565b9050600060076000848152602001908152602001600020549050818114612767576000600660008673ffffffffffffffffffffffffffffffffffffffff1673ffffffffffffffffffffffffffffffffffffffff168152602001908152602001600020600084815260200190815260200160002054905080600660008773ffffffffffffffffffffffffffffffffffffffff1673ffffffffffffffffffffffffffffffffffffffff168152602001908152602001600020600084815260200190815260200160002081905550816007600083815260200190815260200160002081905550505b6007600084815260200190815260200160002060009055600660008573ffffffffffffffffffffffffffffffffffffffff1673ffffffffffffffffffffffffffffffffffffffff16815260200190815260200160002060008381526020019081526020016000206000905550505050565b600060016008805490506127ec9190613cba565b905060006009600084815260200190815260200160002054905060006008838154811061281c5761281b613681565b5b90600052602060002001549050806008838154811061283e5761283d613681565b5b90600052602060002001819055508160096000838152602001908152602001600020819055506009600085815260200190815260200160002060009055600880548061288d5761288c614081565b5b6001900381819060005260206000200160009055905550505050565b60006128b483611236565b905081600660008573ffffffffffffffffffffffffffffffffffffffff1673ffffffffffffffffffffffffffffffffffffffff168152602001908152602001600020600083815260200190815260200160002081905550806007600084815260200190815260200160002081905550505050565b6000808273ffffffffffffffffffffffffffffffffffffffff163b119050919050565b6000604051905090565b600080fd5b600080fd5b60007fffffffff0000000000000000000000000000000000000000000000000000000082169050919050565b6129948161295f565b811461299f57600080fd5b50565b6000813590506129b18161298b565b92915050565b6000602082840312156129cd576129cc612955565b5b60006129db848285016129a2565b91505092915050565b60008115159050919050565b6129f9816129e4565b82525050565b6000602082019050612a1460008301846129f0565b92915050565b600081519050919050565b600082825260208201905092915050565b60005b83811015612a54578082015181840152602081019050612a39565b83811115612a63576000848401525b50505050565b6000601f19601f8301169050919050565b6000612a8582612a1a565b612a8f8185612a25565b9350612a9f818560208601612a36565b612aa881612a69565b840191505092915050565b60006020820190508181036000830152612acd8184612a7a565b905092915050565b6000819050919050565b612ae881612ad5565b8114612af357600080fd5b50565b600081359050612b0581612adf565b92915050565b600060208284031215612b2157612b20612955565b5b6000612b2f84828501612af6565b91505092915050565b600073ffffffffffffffffffffffffffffffffffffffff82169050919050565b6000612b6382612b38565b9050919050565b612b7381612b58565b82525050565b6000602082019050612b8e6000830184612b6a565b92915050565b612b9d81612b58565b8114612ba857600080fd5b50565b600081359050612bba81612b94565b92915050565b60008060408385031215612bd757612bd6612955565b5b6000612be585828601612bab565b9250506020612bf685828601612af6565b9150509250929050565b612c09816129e4565b8114612c1457600080fd5b50565b600081359050612c2681612c00565b92915050565b600060208284031215612c4257612c41612955565b5b6000612c5084828501612c17565b91505092915050565b612c6281612ad5565b82525050565b6000602082019050612c7d6000830184612c59565b92915050565b600080600060608486031215612c9c57612c9b612955565b5b6000612caa86828701612bab565b9350506020612cbb86828701612bab565b9250506040612ccc86828701612af6565b9150509250925092565b600060208284031215612cec57612ceb612955565b5b6000612cfa84828501612bab565b91505092915050565b60008060408385031215612d1a57612d19612955565b5b6000612d2885828601612bab565b9250506020612d3985828601612c17565b9150509250929050565b600080fd5b600080fd5b7f4e487b7100000000000000000000000000000000000000000000000000000000600052604160045260246000fd5b612d8582612a69565b810181811067ffffffffffffffff82111715612da457612da3612d4d565b5b80604052505050565b6000612db761294b565b9050612dc38282612d7c565b919050565b600067ffffffffffffffff821115612de357612de2612d4d565b5b612dec82612a69565b9050602081019050919050565b82818337600083830152505050565b6000612e1b612e1684612dc8565b612dad565b905082815260208101848484011115612e3757612e36612d48565b5b612e42848285612df9565b509392505050565b600082601f830112612e5f57612e5e612d43565b5b8135612e6f848260208601612e08565b91505092915050565b60008060008060808587031215612e9257612e91612955565b5b6000612ea087828801612bab565b9450506020612eb187828801612bab565b9350506040612ec287828801612af6565b925050606085013567ffffffffffffffff811115612ee357612ee261295a565b5b612eef87828801612e4a565b91505092959194509250565b60008060408385031215612f1257612f11612955565b5b6000612f2085828601612bab565b9250506020612f3185828601612bab565b9150509250929050565b7f4f776e61626c653a2063616c6c6572206973206e6f7420746865206f776e6572600082015250565b6000612f71602083612a25565b9150612f7c82612f3b565b602082019050919050565b60006020820190508181036000830152612fa081612f64565b9050919050565b7f4e487b7100000000000000000000000000000000000000000000000000000000600052601160045260246000fd5b6000612fe182612ad5565b9150612fec83612ad5565b9250827fffffffffffffffffffffffffffffffffffffffffffffffffffffffffffffffff0382111561302157613020612fa7565b5b828201905092915050565b7f4e487b7100000000000000000000000000000000000000000000000000000000600052602260045260246000fd5b6000600282049050600182168061307357607f821691505b602082108114156130875761308661302c565b5b50919050565b7f4552433732313a20617070726f76656420717565727920666f72206e6f6e657860008201527f697374656e7420746f6b656e0000000000000000000000000000000000000000602082015250565b60006130e9602c83612a25565b91506130f48261308d565b604082019050919050565b60006020820190508181036000830152613118816130dc565b9050919050565b7f4552433732313a20617070726f76616c20746f2063757272656e74206f776e6560008201527f7200000000000000000000000000000000000000000000000000000000000000602082015250565b600061317b602183612a25565b91506131868261311f565b604082019050919050565b600060208201905081810360008301526131aa8161316e565b9050919050565b7f4552433732313a20617070726f76652063616c6c6572206973206e6f74206f7760008201527f6e6572206e6f7220617070726f76656420666f7220616c6c0000000000000000602082015250565b600061320d603883612a25565b9150613218826131b1565b604082019050919050565b6000602082019050818103600083015261323c81613200565b9050919050565b7f436f6e74726163742063757272656e746c792070617573656400000000000000600082015250565b6000613279601983612a25565b915061328482613243565b602082019050919050565b600060208201905081810360008301526132a88161326c565b9050919050565b7f50726573616c6520686173206e6f7420656e6465642079657400000000000000600082015250565b60006132e5601983612a25565b91506132f0826132af565b602082019050919050565b60006020820190508181036000830152613314816132d8565b9050919050565b7f457863656564206d6178696d756d2043727970746f204465767320737570706c60008201527f7900000000000000000000000000000000000000000000000000000000000000602082015250565b6000613377602183612a25565b91506133828261331b565b604082019050919050565b600060208201905081810360008301526133a68161336a565b9050919050565b7f45746865722073656e74206973206e6f7420636f727265637400000000000000600082015250565b60006133e3601983612a25565b91506133ee826133ad565b602082019050919050565b60006020820190508181036000830152613412816133d6565b9050919050565b7f4552433732313a207472616e736665722063616c6c6572206973206e6f74206f60008201527f776e6572206e6f7220617070726f766564000000000000000000000000000000602082015250565b6000613475603183612a25565b915061348082613419565b604082019050919050565b600060208201905081810360008301526134a481613468565b9050919050565b7f455243373231456e756d657261626c653a206f776e657220696e646578206f7560008201527f74206f6620626f756e6473000000000000000000000000000000000000000000602082015250565b6000613507602b83612a25565b9150613512826134ab565b604082019050919050565b60006020820190508181036000830152613536816134fa565b9050919050565b600081905092915050565b50565b600061355860008361353d565b915061356382613548565b600082019050919050565b60006135798261354b565b9150819050919050565b7f4661696c656420746f2073656e64204574686572000000000000000000000000600082015250565b60006135b9601483612a25565b91506135c482613583565b602082019050919050565b600060208201905081810360008301526135e8816135ac565b9050919050565b7f455243373231456e756d657261626c653a20676c6f62616c20696e646578206f60008201527f7574206f6620626f756e64730000000000000000000000000000000000000000602082015250565b600061364b602c83612a25565b9150613656826135ef565b604082019050919050565b6000602082019050818103600083015261367a8161363e565b9050919050565b7f4e487b7100000000000000000000000000000000000000000000000000000000600052603260045260246000fd5b7f50726573616c65206973206e6f742072756e6e696e6700000000000000000000600082015250565b60006136e6601683612a25565b91506136f1826136b0565b602082019050919050565b60006020820190508181036000830152613715816136d9565b9050919050565b60008151905061372b81612c00565b92915050565b60006020828403121561374757613746612955565b5b60006137558482850161371c565b91505092915050565b7f596f7520617265206e6f742077686974656c6973746564000000000000000000600082015250565b6000613794601783612a25565b915061379f8261375e565b602082019050919050565b600060208201905081810360008301526137c381613787565b9050919050565b7f4578636565646564206d6178696d756d2043727970746f20446576732073757060008201527f706c790000000000000000000000000000000000000000000000000000000000602082015250565b6000613826602383612a25565b9150613831826137ca565b604082019050919050565b6000602082019050818103600083015261385581613819565b9050919050565b7f4552433732313a206f776e657220717565727920666f72206e6f6e657869737460008201527f656e7420746f6b656e0000000000000000000000000000000000000000000000602082015250565b60006138b8602983612a25565b91506138c38261385c565b604082019050919050565b600060208201905081810360008301526138e7816138ab565b9050919050565b7f4552433732313a2062616c616e636520717565727920666f7220746865207a6560008201527f726f206164647265737300000000000000000000000000000000000000000000602082015250565b600061394a602a83612a25565b9150613955826138ee565b604082019050919050565b600060208201905081810360008301526139798161393d565b9050919050565b7f4552433732314d657461646174613a2055524920717565727920666f72206e6f60008201527f6e6578697374656e7420746f6b656e0000000000000000000000000000000000602082015250565b60006139dc602f83612a25565b91506139e782613980565b604082019050919050565b60006020820190508181036000830152613a0b816139cf565b9050919050565b600081905092915050565b6000613a2882612a1a565b613a328185613a12565b9350613a42818560208601612a36565b80840191505092915050565b6000613a5a8285613a1d565b9150613a668284613a1d565b91508190509392505050565b7f4f776e61626c653a206e6577206f776e657220697320746865207a65726f206160008201527f6464726573730000000000000000000000000000000000000000000000000000602082015250565b6000613ace602683612a25565b9150613ad982613a72565b604082019050919050565b60006020820190508181036000830152613afd81613ac1565b9050919050565b7f4552433732313a206f70657261746f7220717565727920666f72206e6f6e657860008201527f697374656e7420746f6b656e0000000000000000000000000000000000000000602082015250565b6000613b60602c83612a25565b9150613b6b82613b04565b604082019050919050565b60006020820190508181036000830152613b8f81613b53565b9050919050565b7f4552433732313a207472616e736665722066726f6d20696e636f72726563742060008201527f6f776e6572000000000000000000000000000000000000000000000000000000602082015250565b6000613bf2602583612a25565b9150613bfd82613b96565b604082019050919050565b60006020820190508181036000830152613c2181613be5565b9050919050565b7f4552433732313a207472616e7366657220746f20746865207a65726f2061646460008201527f7265737300000000000000000000000000000000000000000000000000000000602082015250565b6000613c84602483612a25565b9150613c8f82613c28565b604082019050919050565b60006020820190508181036000830152613cb381613c77565b9050919050565b6000613cc582612ad5565b9150613cd083612ad5565b925082821015613ce357613ce2612fa7565b5b828203905092915050565b7f4552433732313a20617070726f766520746f2063616c6c657200000000000000600082015250565b6000613d24601983612a25565b9150613d2f82613cee565b602082019050919050565b60006020820190508181036000830152613d5381613d17565b9050919050565b7f4552433732313a207472616e7366657220746f206e6f6e20455243373231526560008201527f63656976657220696d706c656d656e7465720000000000000000000000000000602082015250565b6000613db6603283612a25565b9150613dc182613d5a565b604082019050919050565b60006020820190508181036000830152613de581613da9565b9050919050565b6000613df782612ad5565b91507fffffffffffffffffffffffffffffffffffffffffffffffffffffffffffffffff821415613e2a57613e29612fa7565b5b600182019050919050565b7f4e487b7100000000000000000000000000000000000000000000000000000000600052601260045260246000fd5b6000613e6f82612ad5565b9150613e7a83612ad5565b925082613e8a57613e89613e35565b5b828204905092915050565b6000613ea082612ad5565b9150613eab83612ad5565b925082613ebb57613eba613e35565b5b828206905092915050565b600081519050919050565b600082825260208201905092915050565b6000613eed82613ec6565b613ef78185613ed1565b9350613f07818560208601612a36565b613f1081612a69565b840191505092915050565b6000608082019050613f306000830187612b6a565b613f3d6020830186612b6a565b613f4a6040830185612c59565b8181036060830152613f5c8184613ee2565b905095945050505050565b600081519050613f768161298b565b92915050565b600060208284031215613f9257613f91612955565b5b6000613fa084828501613f67565b91505092915050565b7f4552433732313a206d696e7420746f20746865207a65726f2061646472657373600082015250565b6000613fdf602083612a25565b9150613fea82613fa9565b602082019050919050565b6000602082019050818103600083015261400e81613fd2565b9050919050565b7f4552433732313a20746f6b656e20616c7265616479206d696e74656400000000600082015250565b600061404b601c83612a25565b915061405682614015565b602082019050919050565b6000602082019050818103600083015261407a8161403e565b9050919050565b7f4e487b7100000000000000000000000000000000000000000000000000000000600052603160045260246000fdfea2646970667358221220932b2c8126e4ddd2344fb4bca951ccf7e5939ba1b22535195182032930db3adc64736f6c634300080a0033",
  "linkReferences": {},
  "deployedLinkReferences": {}
}