{
  "_format": "hh-sol-artifact-1",
  "contractName": "FakeNFTMarketplace",
  "sourceName": "contracts/FakeNFTMarketplace.sol",
  "abi": [
    {
      "inputs": [
        {
          "internalType": "uint256",
          "name": "_tokenId",
          "type": "uint256"
        }
      ],
      "name": "available",
      "outputs": [
        {
          "internalType": "bool",
          "name": "",
          "type": "bool"
        }
      ],
      "stateMutability": "view",
      "type": "function"
    },
    {
      "inputs": [],
      "name": "getPrice",
      "outputs": [
        {
          "internalType": "uint256",
          "name": "",
          "type": "uint256"
        }
      ],
      "stateMutability": "view",
      "type": "function"
    },
    {
      "inputs": [
        {
          "internalType": "uint256",
          "name": "_tokenId",
          "type": "uint256"
        }
      ],
      "name": "purchase",
      "outputs": [],
      "stateMutability": "payable",
      "type": "function"
    },
    {
      "inputs": [
        {
          "internalType": "uint256",
          "name": "",
          "type": "uint256"
        }
      ],
      "name": "tokens",
      "outputs": [
        {
          "internalType": "address",
          "name": "",
          "type": "address"
        }
      ],
      "stateMutability": "view",
      "type": "function"
    }
  ],
  "bytecode": "0x608060405267016345785d8a000060015534801561001c57600080fd5b5061042c8061002c6000396000f3fe60806040526004361061003f5760003560e01c80634f64b2be1461004457806396e494e81461008157806398d5fdca146100be578063efef39a1146100e9575b600080fd5b34801561005057600080fd5b5061006b60048036038101906100669190610290565b610105565b60405161007891906102fe565b60405180910390f35b34801561008d57600080fd5b506100a860048036038101906100a39190610290565b610138565b6040516100b59190610334565b60405180910390f35b3480156100ca57600080fd5b506100d36101b3565b6040516100e0919061035e565b60405180910390f35b61010360048036038101906100fe9190610290565b6101bd565b005b60006020528060005260406000206000915054906101000a900473ffffffffffffffffffffffffffffffffffffffff1681565b60008073ffffffffffffffffffffffffffffffffffffffff1660008084815260200190815260200160002060009054906101000a900473ffffffffffffffffffffffffffffffffffffffff1673ffffffffffffffffffffffffffffffffffffffff1614156101a957600190506101ae565b600090505b919050565b6000600154905090565b6001543414610201576040517f08c379a00000000000000000000000000000000000000000000000000000000081526004016101f8906103d6565b60405180910390fd5b3360008083815260200190815260200160002060006101000a81548173ffffffffffffffffffffffffffffffffffffffff021916908373ffffffffffffffffffffffffffffffffffffffff16021790555050565b600080fd5b6000819050919050565b61026d8161025a565b811461027857600080fd5b50565b60008135905061028a81610264565b92915050565b6000602082840312156102a6576102a5610255565b5b60006102b48482850161027b565b91505092915050565b600073ffffffffffffffffffffffffffffffffffffffff82169050919050565b60006102e8826102bd565b9050919050565b6102f8816102dd565b82525050565b600060208201905061031360008301846102ef565b92915050565b60008115159050919050565b61032e81610319565b82525050565b60006020820190506103496000830184610325565b92915050565b6103588161025a565b82525050565b6000602082019050610373600083018461034f565b92915050565b600082825260208201905092915050565b7f54686973204e465420636f73747320302e312065746865720000000000000000600082015250565b60006103c0601883610379565b91506103cb8261038a565b602082019050919050565b600060208201905081810360008301526103ef816103b3565b905091905056fea2646970667358221220441ca6a963e29e95350837f6e5c17625cef9c8279016c62c4469242a8706cad964736f6c634300080a0033",
  "linkReferences": {},
  "deployedLinkReferences": {}
}