{
  "_format": "hh-sol-artifact-1",
  "contractName": "RandomWinnerGame",
  "sourceName": "contracts/RandomeWinnerGame.sol",
  "abi": [
    {
      "inputs": [
        {
          "internalType": "address",
          "name": "vrfCoordinator",
          "type": "address"
        },
        {
          "internalType": "address",
          "name": "linkToken",
          "type": "address"
        },
        {
          "internalType": "bytes32",
          "name": "vrfKeyHash",
          "type": "bytes32"
        },
        {
          "internalType": "uint256",
          "name": "vrfFee",
          "type": "uint256"
        }
      ],
      "stateMutability": "nonpayable",
      "type": "constructor"
    },
    {
      "anonymous": false,
      "inputs": [
        {
          "indexed": false,
          "internalType": "uint256",
          "name": "gameId",
          "type": "uint256"
        },
        {
          "indexed": false,
          "internalType": "address",
          "name": "winner",
          "type": "address"
        },
        {
          "indexed": false,
          "internalType": "bytes32",
          "name": "requestId",
          "type": "bytes32"
        }
      ],
      "name": "GameEnded",
      "type": "event"
    },
    {
      "anonymous": false,
      "inputs": [
        {
          "indexed": false,
          "internalType": "uint256",
          "name": "gameId",
          "type": "uint256"
        },
        {
          "indexed": false,
          "internalType": "uint8",
          "name": "maxPlayers",
          "type": "uint8"
        },
        {
          "indexed": false,
          "internalType": "uint256",
          "name": "entryFee",
          "type": "uint256"
        }
      ],
      "name": "GameStarted",
      "type": "event"
    },
    {
      "anonymous": false,
      "inputs": [
        {
          "indexed": true,
          "internalType": "address",
          "name": "previousOwner",
          "type": "address"
        },
        {
          "indexed": true,
          "internalType": "address",
          "name": "newOwner",
          "type": "address"
        }
      ],
      "name": "OwnershipTransferred",
      "type": "event"
    },
    {
      "anonymous": false,
      "inputs": [
        {
          "indexed": false,
          "internalType": "uint256",
          "name": "gameId",
          "type": "uint256"
        },
        {
          "indexed": false,
          "internalType": "address",
          "name": "player",
          "type": "address"
        }
      ],
      "name": "PlayerJoined",
      "type": "event"
    },
    {
      "inputs": [],
      "name": "fee",
      "outputs": [
        {
          "internalType": "uint256",
          "name": "",
          "type": "uint256"
        }
      ],
      "stateMutability": "view",
      "type": "function"
    },
    {
      "inputs": [],
      "name": "gameId",
      "outputs": [
        {
          "internalType": "uint256",
          "name": "",
          "type": "uint256"
        }
      ],
      "stateMutability": "view",
      "type": "function"
    },
    {
      "inputs": [],
      "name": "gameStarted",
      "outputs": [
        {
          "internalType": "bool",
          "name": "",
          "type": "bool"
        }
      ],
      "stateMutability": "view",
      "type": "function"
    },
    {
      "inputs": [],
      "name": "joinGame",
      "outputs": [],
      "stateMutability": "payable",
      "type": "function"
    },
    {
      "inputs": [],
      "name": "keyHash",
      "outputs": [
        {
          "internalType": "bytes32",
          "name": "",
          "type": "bytes32"
        }
      ],
      "stateMutability": "view",
      "type": "function"
    },
    {
      "inputs": [],
      "name": "owner",
      "outputs": [
        {
          "internalType": "address",
          "name": "",
          "type": "address"
        }
      ],
      "stateMutability": "view",
      "type": "function"
    },
    {
      "inputs": [
        {
          "internalType": "uint256",
          "name": "",
          "type": "uint256"
        }
      ],
      "name": "players",
      "outputs": [
        {
          "internalType": "address",
          "name": "",
          "type": "address"
        }
      ],
      "stateMutability": "view",
      "type": "function"
    },
    {
      "inputs": [
        {
          "internalType": "bytes32",
          "name": "requestId",
          "type": "bytes32"
        },
        {
          "internalType": "uint256",
          "name": "randomness",
          "type": "uint256"
        }
      ],
      "name": "rawFulfillRandomness",
      "outputs": [],
      "stateMutability": "nonpayable",
      "type": "function"
    },
    {
      "inputs": [],
      "name": "renounceOwnership",
      "outputs": [],
      "stateMutability": "nonpayable",
      "type": "function"
    },
    {
      "inputs": [
        {
          "internalType": "uint8",
          "name": "_maxPlayers",
          "type": "uint8"
        },
        {
          "internalType": "uint256",
          "name": "_entryFee",
          "type": "uint256"
        }
      ],
      "name": "startGame",
      "outputs": [],
      "stateMutability": "nonpayable",
      "type": "function"
    },
    {
      "inputs": [
        {
          "internalType": "address",
          "name": "newOwner",
          "type": "address"
        }
      ],
      "name": "transferOwnership",
      "outputs": [],
      "stateMutability": "nonpayable",
      "type": "function"
    }
  ],
  "bytecode": "0x60c06040523480156200001157600080fd5b5060405162001be138038062001be18339818101604052810190620000379190620002a4565b83838173ffffffffffffffffffffffffffffffffffffffff1660a08173ffffffffffffffffffffffffffffffffffffffff16815250508073ffffffffffffffffffffffffffffffffffffffff1660808173ffffffffffffffffffffffffffffffffffffffff16815250505050620000c3620000b7620000f660201b60201c565b620000fe60201b60201c565b81600381905550806002819055506000600560016101000a81548160ff0219169083151502179055505050505062000316565b600033905090565b6000600160009054906101000a900473ffffffffffffffffffffffffffffffffffffffff16905081600160006101000a81548173ffffffffffffffffffffffffffffffffffffffff021916908373ffffffffffffffffffffffffffffffffffffffff1602179055508173ffffffffffffffffffffffffffffffffffffffff168173ffffffffffffffffffffffffffffffffffffffff167f8be0079c531659141344cd1fd0a4f28419497f9722a3daafe3b4186f6b6457e060405160405180910390a35050565b600080fd5b600073ffffffffffffffffffffffffffffffffffffffff82169050919050565b6000620001f682620001c9565b9050919050565b6200020881620001e9565b81146200021457600080fd5b50565b6000815190506200022881620001fd565b92915050565b6000819050919050565b62000243816200022e565b81146200024f57600080fd5b50565b600081519050620002638162000238565b92915050565b6000819050919050565b6200027e8162000269565b81146200028a57600080fd5b50565b6000815190506200029e8162000273565b92915050565b60008060008060808587031215620002c157620002c0620001c4565b5b6000620002d18782880162000217565b9450506020620002e48782880162000217565b9350506040620002f78782880162000252565b92505060606200030a878288016200028d565b91505092959194509250565b60805160a0516118976200034a6000396000818161031e0152610b97015260008181610a6b0152610b5b01526118976000f3fe60806040526004361061009c5760003560e01c8063d4f77b1c11610064578063d4f77b1c14610162578063d7c81b551461016c578063ddca3f4314610197578063e849c38e146101c2578063f2fde38b146101eb578063f71d96cb146102145761009c565b80635e123ce4146100a157806361728f39146100cc578063715018a6146100f75780638da5cb5b1461010e57806394985ddd14610139575b600080fd5b3480156100ad57600080fd5b506100b6610251565b6040516100c39190610d6f565b60405180910390f35b3480156100d857600080fd5b506100e1610264565b6040516100ee9190610da3565b60405180910390f35b34801561010357600080fd5b5061010c61026a565b005b34801561011a57600080fd5b506101236102f2565b6040516101309190610dff565b60405180910390f35b34801561014557600080fd5b50610160600480360381019061015b9190610e81565b61031c565b005b61016a6103b8565b005b34801561017857600080fd5b5061018161056d565b60405161018e9190610ed0565b60405180910390f35b3480156101a357600080fd5b506101ac610573565b6040516101b99190610ed0565b60405180910390f35b3480156101ce57600080fd5b506101e960048036038101906101e49190610f24565b610579565b005b3480156101f757600080fd5b50610212600480360381019061020d9190610f90565b6106fc565b005b34801561022057600080fd5b5061023b60048036038101906102369190610fbd565b6107f4565b6040516102489190610dff565b60405180910390f35b600560019054906101000a900460ff1681565b60035481565b610272610833565b73ffffffffffffffffffffffffffffffffffffffff166102906102f2565b73ffffffffffffffffffffffffffffffffffffffff16146102e6576040517f08c379a00000000000000000000000000000000000000000000000000000000081526004016102dd90611047565b60405180910390fd5b6102f0600061083b565b565b6000600160009054906101000a900473ffffffffffffffffffffffffffffffffffffffff16905090565b7f000000000000000000000000000000000000000000000000000000000000000073ffffffffffffffffffffffffffffffffffffffff163373ffffffffffffffffffffffffffffffffffffffff16146103aa576040517f08c379a00000000000000000000000000000000000000000000000000000000081526004016103a1906110b3565b60405180910390fd5b6103b48282610901565b5050565b600560019054906101000a900460ff16610407576040517f08c379a00000000000000000000000000000000000000000000000000000000081526004016103fe9061111f565b60405180910390fd5b600654341461044b576040517f08c379a0000000000000000000000000000000000000000000000000000000008152600401610442906111b1565b60405180910390fd5b600560009054906101000a900460ff1660ff16600480549050106104a4576040517f08c379a000000000000000000000000000000000000000000000000000000000815260040161049b9061121d565b60405180910390fd5b6004339080600181540180825580915050600190039060005260206000200160009091909190916101000a81548173ffffffffffffffffffffffffffffffffffffffff021916908373ffffffffffffffffffffffffffffffffffffffff1602179055507f87969bc7faf902221a147b95ceba76e011c5efb0339a0a8ee7a2bb82d9cfbbd66007543360405161053a92919061123d565b60405180910390a1600560009054906101000a900460ff1660ff16600480549050141561056b57610569610a64565b505b565b60075481565b60025481565b610581610833565b73ffffffffffffffffffffffffffffffffffffffff1661059f6102f2565b73ffffffffffffffffffffffffffffffffffffffff16146105f5576040517f08c379a00000000000000000000000000000000000000000000000000000000081526004016105ec90611047565b60405180910390fd5b600560019054906101000a900460ff1615610645576040517f08c379a000000000000000000000000000000000000000000000000000000000815260040161063c906112b2565b60405180910390fd5b600460006106539190610d16565b81600560006101000a81548160ff021916908360ff1602179055506001600560016101000a81548160ff021916908315150217905550806006819055506001600760008282546106a39190611301565b925050819055507f10a7675bf1b19b67834ca5a59866847fd31c62cdfc8e9466039e6b8e088e15ae600754600560009054906101000a900460ff166006546040516106f093929190611366565b60405180910390a15050565b610704610833565b73ffffffffffffffffffffffffffffffffffffffff166107226102f2565b73ffffffffffffffffffffffffffffffffffffffff1614610778576040517f08c379a000000000000000000000000000000000000000000000000000000000815260040161076f90611047565b60405180910390fd5b600073ffffffffffffffffffffffffffffffffffffffff168173ffffffffffffffffffffffffffffffffffffffff1614156107e8576040517f08c379a00000000000000000000000000000000000000000000000000000000081526004016107df9061140f565b60405180910390fd5b6107f18161083b565b50565b6004818154811061080457600080fd5b906000526020600020016000915054906101000a900473ffffffffffffffffffffffffffffffffffffffff1681565b600033905090565b6000600160009054906101000a900473ffffffffffffffffffffffffffffffffffffffff16905081600160006101000a81548173ffffffffffffffffffffffffffffffffffffffff021916908373ffffffffffffffffffffffffffffffffffffffff1602179055508173ffffffffffffffffffffffffffffffffffffffff168173ffffffffffffffffffffffffffffffffffffffff167f8be0079c531659141344cd1fd0a4f28419497f9722a3daafe3b4186f6b6457e060405160405180910390a35050565b600060048054905082610914919061145e565b905060006004828154811061092c5761092b61148f565b5b9060005260206000200160009054906101000a900473ffffffffffffffffffffffffffffffffffffffff16905060008173ffffffffffffffffffffffffffffffffffffffff164760405161097f906114ef565b60006040518083038185875af1925050503d80600081146109bc576040519150601f19603f3d011682016040523d82523d6000602084013e6109c1565b606091505b5050905080610a05576040517f08c379a00000000000000000000000000000000000000000000000000000000081526004016109fc90611550565b60405180910390fd5b7fd2da138ec4b828f6f1dd931eea0488e41e941f7cda657ad8f524ede8cb2c7ce06007548387604051610a3a93929190611570565b60405180910390a16000600560016101000a81548160ff0219169083151502179055505050505050565b60006002547f000000000000000000000000000000000000000000000000000000000000000073ffffffffffffffffffffffffffffffffffffffff166370a08231306040518263ffffffff1660e01b8152600401610ac29190610dff565b602060405180830381865afa158015610adf573d6000803e3d6000fd5b505050506040513d601f19601f82011682018060405250810190610b0391906115bc565b1015610b44576040517f08c379a0000000000000000000000000000000000000000000000000000000008152600401610b3b90611635565b60405180910390fd5b610b52600354600254610b57565b905090565b60007f000000000000000000000000000000000000000000000000000000000000000073ffffffffffffffffffffffffffffffffffffffff16634000aea07f000000000000000000000000000000000000000000000000000000000000000084866000604051602001610bcb929190611655565b6040516020818303038152906040526040518463ffffffff1660e01b8152600401610bf893929190611717565b6020604051808303816000875af1158015610c17573d6000803e3d6000fd5b505050506040513d601f19601f82011682018060405250810190610c3b9190611781565b506000610c5d8460003060008089815260200190815260200160002054610ca7565b9050600160008086815260200190815260200160002054610c7e9190611301565b60008086815260200190815260200160002081905550610c9e8482610ce3565b91505092915050565b600084848484604051602001610cc094939291906117ae565b6040516020818303038152906040528051906020012060001c9050949350505050565b60008282604051602001610cf8929190611835565b60405160208183030381529060405280519060200120905092915050565b5080546000825590600052602060002090810190610d349190610d37565b50565b5b80821115610d50576000816000905550600101610d38565b5090565b60008115159050919050565b610d6981610d54565b82525050565b6000602082019050610d846000830184610d60565b92915050565b6000819050919050565b610d9d81610d8a565b82525050565b6000602082019050610db86000830184610d94565b92915050565b600073ffffffffffffffffffffffffffffffffffffffff82169050919050565b6000610de982610dbe565b9050919050565b610df981610dde565b82525050565b6000602082019050610e146000830184610df0565b92915050565b600080fd5b610e2881610d8a565b8114610e3357600080fd5b50565b600081359050610e4581610e1f565b92915050565b6000819050919050565b610e5e81610e4b565b8114610e6957600080fd5b50565b600081359050610e7b81610e55565b92915050565b60008060408385031215610e9857610e97610e1a565b5b6000610ea685828601610e36565b9250506020610eb785828601610e6c565b9150509250929050565b610eca81610e4b565b82525050565b6000602082019050610ee56000830184610ec1565b92915050565b600060ff82169050919050565b610f0181610eeb565b8114610f0c57600080fd5b50565b600081359050610f1e81610ef8565b92915050565b60008060408385031215610f3b57610f3a610e1a565b5b6000610f4985828601610f0f565b9250506020610f5a85828601610e6c565b9150509250929050565b610f6d81610dde565b8114610f7857600080fd5b50565b600081359050610f8a81610f64565b92915050565b600060208284031215610fa657610fa5610e1a565b5b6000610fb484828501610f7b565b91505092915050565b600060208284031215610fd357610fd2610e1a565b5b6000610fe184828501610e6c565b91505092915050565b600082825260208201905092915050565b7f4f776e61626c653a2063616c6c6572206973206e6f7420746865206f776e6572600082015250565b6000611031602083610fea565b915061103c82610ffb565b602082019050919050565b6000602082019050818103600083015261106081611024565b9050919050565b7f4f6e6c7920565246436f6f7264696e61746f722063616e2066756c66696c6c00600082015250565b600061109d601f83610fea565b91506110a882611067565b602082019050919050565b600060208201905081810360008301526110cc81611090565b9050919050565b7f47616d6520686173206e6f74206265656e207374617274656420796574000000600082015250565b6000611109601d83610fea565b9150611114826110d3565b602082019050919050565b60006020820190508181036000830152611138816110fc565b9050919050565b7f56616c75652073656e74206973206e6f7420657175616c20746f20656e74727960008201527f4665650000000000000000000000000000000000000000000000000000000000602082015250565b600061119b602383610fea565b91506111a68261113f565b604082019050919050565b600060208201905081810360008301526111ca8161118e565b9050919050565b7f47616d652069732066756c6c0000000000000000000000000000000000000000600082015250565b6000611207600c83610fea565b9150611212826111d1565b602082019050919050565b60006020820190508181036000830152611236816111fa565b9050919050565b60006040820190506112526000830185610ec1565b61125f6020830184610df0565b9392505050565b7f47616d652069732063757272656e746c792072756e6e696e6700000000000000600082015250565b600061129c601983610fea565b91506112a782611266565b602082019050919050565b600060208201905081810360008301526112cb8161128f565b9050919050565b7f4e487b7100000000000000000000000000000000000000000000000000000000600052601160045260246000fd5b600061130c82610e4b565b915061131783610e4b565b9250827fffffffffffffffffffffffffffffffffffffffffffffffffffffffffffffffff0382111561134c5761134b6112d2565b5b828201905092915050565b61136081610eeb565b82525050565b600060608201905061137b6000830186610ec1565b6113886020830185611357565b6113956040830184610ec1565b949350505050565b7f4f776e61626c653a206e6577206f776e657220697320746865207a65726f206160008201527f6464726573730000000000000000000000000000000000000000000000000000602082015250565b60006113f9602683610fea565b91506114048261139d565b604082019050919050565b60006020820190508181036000830152611428816113ec565b9050919050565b7f4e487b7100000000000000000000000000000000000000000000000000000000600052601260045260246000fd5b600061146982610e4b565b915061147483610e4b565b9250826114845761148361142f565b5b828206905092915050565b7f4e487b7100000000000000000000000000000000000000000000000000000000600052603260045260246000fd5b600081905092915050565b50565b60006114d96000836114be565b91506114e4826114c9565b600082019050919050565b60006114fa826114cc565b9150819050919050565b7f4661696c656420746f2073656e64204574686572000000000000000000000000600082015250565b600061153a601483610fea565b915061154582611504565b602082019050919050565b600060208201905081810360008301526115698161152d565b9050919050565b60006060820190506115856000830186610ec1565b6115926020830185610df0565b61159f6040830184610d94565b949350505050565b6000815190506115b681610e55565b92915050565b6000602082840312156115d2576115d1610e1a565b5b60006115e0848285016115a7565b91505092915050565b7f4e6f7420656e6f756768204c494e4b0000000000000000000000000000000000600082015250565b600061161f600f83610fea565b915061162a826115e9565b602082019050919050565b6000602082019050818103600083015261164e81611612565b9050919050565b600060408201905061166a6000830185610d94565b6116776020830184610ec1565b9392505050565b600081519050919050565b600082825260208201905092915050565b60005b838110156116b857808201518184015260208101905061169d565b838111156116c7576000848401525b50505050565b6000601f19601f8301169050919050565b60006116e98261167e565b6116f38185611689565b935061170381856020860161169a565b61170c816116cd565b840191505092915050565b600060608201905061172c6000830186610df0565b6117396020830185610ec1565b818103604083015261174b81846116de565b9050949350505050565b61175e81610d54565b811461176957600080fd5b50565b60008151905061177b81611755565b92915050565b60006020828403121561179757611796610e1a565b5b60006117a58482850161176c565b91505092915050565b60006080820190506117c36000830187610d94565b6117d06020830186610ec1565b6117dd6040830185610df0565b6117ea6060830184610ec1565b95945050505050565b6000819050919050565b61180e61180982610d8a565b6117f3565b82525050565b6000819050919050565b61182f61182a82610e4b565b611814565b82525050565b600061184182856117fd565b602082019150611851828461181e565b602082019150819050939250505056fea2646970667358221220b9dc2f821ead2678f99d1457447319f8c4a3d3dfdea1a1bc677d0d23a492545264736f6c634300080a0033",
  "linkReferences": {},
  "deployedLinkReferences": {}
}