{
  "_format": "hh-sol-artifact-1",
  "contractName": "RandomWinnerGame",
  "sourceName": "contracts/RandomeWinnerGame.sol",
  "abi": [
    {
      "inputs": [
        {
          "internalType": "address",
          "name": "vrfCoordinator",
          "type": "address"
        },
        {
          "internalType": "address",
          "name": "linkToken",
          "type": "address"
        },
        {
          "internalType": "bytes32",
          "name": "vrfKeyHash",
          "type": "bytes32"
        },
        {
          "internalType": "uint256",
          "name": "vrfFee",
          "type": "uint256"
        }
      ],
      "stateMutability": "nonpayable",
      "type": "constructor"
    },
    {
      "anonymous": false,
      "inputs": [
        {
          "indexed": false,
          "internalType": "uint256",
          "name": "gameId",
          "type": "uint256"
        },
        {
          "indexed": false,
          "internalType": "address",
          "name": "winner",
          "type": "address"
        },
        {
          "indexed": false,
          "internalType": "bytes32",
          "name": "requestId",
          "type": "bytes32"
        }
      ],
      "name": "GameEnded",
      "type": "event"
    },
    {
      "anonymous": false,
      "inputs": [
        {
          "indexed": false,
          "internalType": "uint256",
          "name": "gameId",
          "type": "uint256"
        },
        {
          "indexed": false,
          "internalType": "uint8",
          "name": "maxPlayers",
          "type": "uint8"
        },
        {
          "indexed": false,
          "internalType": "uint256",
          "name": "entryFee",
          "type": "uint256"
        }
      ],
      "name": "GameStarted",
      "type": "event"
    },
    {
      "anonymous": false,
      "inputs": [
        {
          "indexed": true,
          "internalType": "address",
          "name": "previousOwner",
          "type": "address"
        },
        {
          "indexed": true,
          "internalType": "address",
          "name": "newOwner",
          "type": "address"
        }
      ],
      "name": "OwnershipTransferred",
      "type": "event"
    },
    {
      "anonymous": false,
      "inputs": [
        {
          "indexed": false,
          "internalType": "uint256",
          "name": "gameId",
          "type": "uint256"
        },
        {
          "indexed": false,
          "internalType": "address",
          "name": "player",
          "type": "address"
        }
      ],
      "name": "PlayerJoined",
      "type": "event"
    },
    {
      "inputs": [],
      "name": "fee",
      "outputs": [
        {
          "internalType": "uint256",
          "name": "",
          "type": "uint256"
        }
      ],
      "stateMutability": "view",
      "type": "function"
    },
    {
      "inputs": [],
      "name": "gameId",
      "outputs": [
        {
          "internalType": "uint256",
          "name": "",
          "type": "uint256"
        }
      ],
      "stateMutability": "view",
      "type": "function"
    },
    {
      "inputs": [],
      "name": "gameStarted",
      "outputs": [
        {
          "internalType": "bool",
          "name": "",
          "type": "bool"
        }
      ],
      "stateMutability": "view",
      "type": "function"
    },
    {
      "inputs": [],
      "name": "joinGame",
      "outputs": [],
      "stateMutability": "payable",
      "type": "function"
    },
    {
      "inputs": [],
      "name": "keyHash",
      "outputs": [
        {
          "internalType": "bytes32",
          "name": "",
          "type": "bytes32"
        }
      ],
      "stateMutability": "view",
      "type": "function"
    },
    {
      "inputs": [],
      "name": "owner",
      "outputs": [
        {
          "internalType": "address",
          "name": "",
          "type": "address"
        }
      ],
      "stateMutability": "view",
      "type": "function"
    },
    {
      "inputs": [
        {
          "internalType": "uint256",
          "name": "",
          "type": "uint256"
        }
      ],
      "name": "players",
      "outputs": [
        {
          "internalType": "address",
          "name": "",
          "type": "address"
        }
      ],
      "stateMutability": "view",
      "type": "function"
    },
    {
      "inputs": [
        {
          "internalType": "bytes32",
          "name": "requestId",
          "type": "bytes32"
        },
        {
          "internalType": "uint256",
          "name": "randomness",
          "type": "uint256"
        }
      ],
      "name": "rawFulfillRandomness",
      "outputs": [],
      "stateMutability": "nonpayable",
      "type": "function"
    },
    {
      "inputs": [],
      "name": "renounceOwnership",
      "outputs": [],
      "stateMutability": "nonpayable",
      "type": "function"
    },
    {
      "inputs": [
        {
          "internalType": "uint8",
          "name": "_maxPlayers",
          "type": "uint8"
        },
        {
          "internalType": "uint256",
          "name": "_entryFee",
          "type": "uint256"
        }
      ],
      "name": "startGame",
      "outputs": [],
      "stateMutability": "nonpayable",
      "type": "function"
    },
    {
      "inputs": [
        {
          "internalType": "address",
          "name": "newOwner",
          "type": "address"
        }
      ],
      "name": "transferOwnership",
      "outputs": [],
      "stateMutability": "nonpayable",
      "type": "function"
    }
  ],
  "bytecode": "0x60c06040523480156200001157600080fd5b5060405162001bda38038062001bda83398181016040528101906200003791906200020f565b83838173ffffffffffffffffffffffffffffffffffffffff1660a08173ffffffffffffffffffffffffffffffffffffffff1660601b815250508073ffffffffffffffffffffffffffffffffffffffff1660808173ffffffffffffffffffffffffffffffffffffffff1660601b815250505050620000c9620000bd620000fc60201b60201c565b6200010460201b60201c565b81600381905550806002819055506000600560016101000a81548160ff0219169083151502179055505050505062000311565b600033905090565b6000600160009054906101000a900473ffffffffffffffffffffffffffffffffffffffff16905081600160006101000a81548173ffffffffffffffffffffffffffffffffffffffff021916908373ffffffffffffffffffffffffffffffffffffffff1602179055508173ffffffffffffffffffffffffffffffffffffffff168173ffffffffffffffffffffffffffffffffffffffff167f8be0079c531659141344cd1fd0a4f28419497f9722a3daafe3b4186f6b6457e060405160405180910390a35050565b600081519050620001db81620002c3565b92915050565b600081519050620001f281620002dd565b92915050565b6000815190506200020981620002f7565b92915050565b600080600080608085870312156200022657600080fd5b60006200023687828801620001ca565b94505060206200024987828801620001ca565b93505060406200025c87828801620001e1565b92505060606200026f87828801620001f8565b91505092959194509250565b6000620002888262000299565b9050919050565b6000819050919050565b600073ffffffffffffffffffffffffffffffffffffffff82169050919050565b6000819050919050565b620002ce816200027b565b8114620002da57600080fd5b50565b620002e8816200028f565b8114620002f457600080fd5b50565b6200030281620002b9565b81146200030e57600080fd5b50565b60805160601c60a05160601c61188f6200034b6000396000818161031e0152610bcc015260008181610a910152610b90015261188f6000f3fe60806040526004361061009c5760003560e01c8063d4f77b1c11610064578063d4f77b1c14610162578063d7c81b551461016c578063ddca3f4314610197578063e849c38e146101c2578063f2fde38b146101eb578063f71d96cb146102145761009c565b80635e123ce4146100a157806361728f39146100cc578063715018a6146100f75780638da5cb5b1461010e57806394985ddd14610139575b600080fd5b3480156100ad57600080fd5b506100b6610251565b6040516100c391906111dc565b60405180910390f35b3480156100d857600080fd5b506100e1610264565b6040516100ee91906111f7565b60405180910390f35b34801561010357600080fd5b5061010c61026a565b005b34801561011a57600080fd5b506101236102f2565b6040516101309190611183565b60405180910390f35b34801561014557600080fd5b50610160600480360381019061015b9190610e68565b61031c565b005b61016a6103b8565b005b34801561017857600080fd5b5061018161056d565b60405161018e91906113a0565b60405180910390f35b3480156101a357600080fd5b506101ac610573565b6040516101b991906113a0565b60405180910390f35b3480156101ce57600080fd5b506101e960048036038101906101e49190610ef6565b610579565b005b3480156101f757600080fd5b50610212600480360381019061020d9190610e16565b6106fc565b005b34801561022057600080fd5b5061023b60048036038101906102369190610ea4565b6107f4565b6040516102489190611183565b60405180910390f35b600560019054906101000a900460ff1681565b60035481565b610272610833565b73ffffffffffffffffffffffffffffffffffffffff166102906102f2565b73ffffffffffffffffffffffffffffffffffffffff16146102e6576040517f08c379a00000000000000000000000000000000000000000000000000000000081526004016102dd90611340565b60405180910390fd5b6102f0600061083b565b565b6000600160009054906101000a900473ffffffffffffffffffffffffffffffffffffffff16905090565b7f000000000000000000000000000000000000000000000000000000000000000073ffffffffffffffffffffffffffffffffffffffff163373ffffffffffffffffffffffffffffffffffffffff16146103aa576040517f08c379a00000000000000000000000000000000000000000000000000000000081526004016103a190611360565b60405180910390fd5b6103b48282610901565b5050565b600560019054906101000a900460ff16610407576040517f08c379a00000000000000000000000000000000000000000000000000000000081526004016103fe906112a0565b60405180910390fd5b600654341461044b576040517f08c379a000000000000000000000000000000000000000000000000000000000815260040161044290611320565b60405180910390fd5b600560009054906101000a900460ff1660ff16600480549050106104a4576040517f08c379a000000000000000000000000000000000000000000000000000000000815260040161049b90611280565b60405180910390fd5b6004339080600181540180825580915050600190039060005260206000200160009091909190916101000a81548173ffffffffffffffffffffffffffffffffffffffff021916908373ffffffffffffffffffffffffffffffffffffffff1602179055507f87969bc7faf902221a147b95ceba76e011c5efb0339a0a8ee7a2bb82d9cfbbd66007543360405161053a9291906113bb565b60405180910390a1600560009054906101000a900460ff1660ff16600480549050141561056b57610569610a8a565b505b565b60075481565b60025481565b610581610833565b73ffffffffffffffffffffffffffffffffffffffff1661059f6102f2565b73ffffffffffffffffffffffffffffffffffffffff16146105f5576040517f08c379a00000000000000000000000000000000000000000000000000000000081526004016105ec90611340565b60405180910390fd5b600560019054906101000a900460ff1615610645576040517f08c379a000000000000000000000000000000000000000000000000000000000815260040161063c90611380565b60405180910390fd5b600460006106539190610d5a565b81600560006101000a81548160ff021916908360ff1602179055506001600560016101000a81548160ff021916908315150217905550806006819055506001600760008282546106a3919061148a565b925050819055507f10a7675bf1b19b67834ca5a59866847fd31c62cdfc8e9466039e6b8e088e15ae600754600560009054906101000a900460ff166006546040516106f09392919061141b565b60405180910390a15050565b610704610833565b73ffffffffffffffffffffffffffffffffffffffff166107226102f2565b73ffffffffffffffffffffffffffffffffffffffff1614610778576040517f08c379a000000000000000000000000000000000000000000000000000000000815260040161076f90611340565b60405180910390fd5b600073ffffffffffffffffffffffffffffffffffffffff168173ffffffffffffffffffffffffffffffffffffffff1614156107e8576040517f08c379a00000000000000000000000000000000000000000000000000000000081526004016107df906112c0565b60405180910390fd5b6107f18161083b565b50565b6004818154811061080457600080fd5b906000526020600020016000915054906101000a900473ffffffffffffffffffffffffffffffffffffffff1681565b600033905090565b6000600160009054906101000a900473ffffffffffffffffffffffffffffffffffffffff16905081600160006101000a81548173ffffffffffffffffffffffffffffffffffffffff021916908373ffffffffffffffffffffffffffffffffffffffff1602179055508173ffffffffffffffffffffffffffffffffffffffff168173ffffffffffffffffffffffffffffffffffffffff167f8be0079c531659141344cd1fd0a4f28419497f9722a3daafe3b4186f6b6457e060405160405180910390a35050565b6000600480549050826109149190611586565b9050600060048281548110610952577f4e487b7100000000000000000000000000000000000000000000000000000000600052603260045260246000fd5b9060005260206000200160009054906101000a900473ffffffffffffffffffffffffffffffffffffffff16905060008173ffffffffffffffffffffffffffffffffffffffff16476040516109a59061116e565b60006040518083038185875af1925050503d80600081146109e2576040519150601f19603f3d011682016040523d82523d6000602084013e6109e7565b606091505b5050905080610a2b576040517f08c379a0000000000000000000000000000000000000000000000000000000008152600401610a22906112e0565b60405180910390fd5b7fd2da138ec4b828f6f1dd931eea0488e41e941f7cda657ad8f524ede8cb2c7ce06007548387604051610a60939291906113e4565b60405180910390a16000600560016101000a81548160ff0219169083151502179055505050505050565b60006002547f000000000000000000000000000000000000000000000000000000000000000073ffffffffffffffffffffffffffffffffffffffff166370a08231306040518263ffffffff1660e01b8152600401610ae89190611183565b60206040518083038186803b158015610b0057600080fd5b505afa158015610b14573d6000803e3d6000fd5b505050506040513d601f19601f82011682018060405250810190610b389190610ecd565b1015610b79576040517f08c379a0000000000000000000000000000000000000000000000000000000008152600401610b7090611300565b60405180910390fd5b610b87600354600254610b8c565b905090565b60007f000000000000000000000000000000000000000000000000000000000000000073ffffffffffffffffffffffffffffffffffffffff16634000aea07f000000000000000000000000000000000000000000000000000000000000000084866000604051602001610c00929190611212565b6040516020818303038152906040526040518463ffffffff1660e01b8152600401610c2d9392919061119e565b602060405180830381600087803b158015610c4757600080fd5b505af1158015610c5b573d6000803e3d6000fd5b505050506040513d601f19601f82011682018060405250810190610c7f9190610e3f565b506000610ca18460003060008089815260200190815260200160002054610ceb565b9050600160008086815260200190815260200160002054610cc2919061148a565b60008086815260200190815260200160002081905550610ce28482610d27565b91505092915050565b600084848484604051602001610d04949392919061123b565b6040516020818303038152906040528051906020012060001c9050949350505050565b60008282604051602001610d3c929190611142565b60405160208183030381529060405280519060200120905092915050565b5080546000825590600052602060002090810190610d789190610d7b565b50565b5b80821115610d94576000816000905550600101610d7c565b5090565b600081359050610da7816117e6565b92915050565b600081519050610dbc816117fd565b92915050565b600081359050610dd181611814565b92915050565b600081359050610de68161182b565b92915050565b600081519050610dfb8161182b565b92915050565b600081359050610e1081611842565b92915050565b600060208284031215610e2857600080fd5b6000610e3684828501610d98565b91505092915050565b600060208284031215610e5157600080fd5b6000610e5f84828501610dad565b91505092915050565b60008060408385031215610e7b57600080fd5b6000610e8985828601610dc2565b9250506020610e9a85828601610dd7565b9150509250929050565b600060208284031215610eb657600080fd5b6000610ec484828501610dd7565b91505092915050565b600060208284031215610edf57600080fd5b6000610eed84828501610dec565b91505092915050565b60008060408385031215610f0957600080fd5b6000610f1785828601610e01565b9250506020610f2885828601610dd7565b9150509250929050565b610f3b816114e0565b82525050565b610f4a816114f2565b82525050565b610f59816114fe565b82525050565b610f70610f6b826114fe565b611572565b82525050565b6000610f8182611452565b610f8b818561145d565b9350610f9b81856020860161153f565b610fa481611615565b840191505092915050565b6000610fbc600c83611479565b9150610fc782611626565b602082019050919050565b6000610fdf601d83611479565b9150610fea8261164f565b602082019050919050565b6000611002602683611479565b915061100d82611678565b604082019050919050565b6000611025601483611479565b9150611030826116c7565b602082019050919050565b6000611048600f83611479565b9150611053826116f0565b602082019050919050565b600061106b602383611479565b915061107682611719565b604082019050919050565b600061108e602083611479565b915061109982611768565b602082019050919050565b60006110b1601f83611479565b91506110bc82611791565b602082019050919050565b60006110d460008361146e565b91506110df826117ba565b600082019050919050565b60006110f7601983611479565b9150611102826117bd565b602082019050919050565b61111681611528565b82525050565b61112d61112882611528565b61157c565b82525050565b61113c81611532565b82525050565b600061114e8285610f5f565b60208201915061115e828461111c565b6020820191508190509392505050565b6000611179826110c7565b9150819050919050565b60006020820190506111986000830184610f32565b92915050565b60006060820190506111b36000830186610f32565b6111c0602083018561110d565b81810360408301526111d28184610f76565b9050949350505050565b60006020820190506111f16000830184610f41565b92915050565b600060208201905061120c6000830184610f50565b92915050565b60006040820190506112276000830185610f50565b611234602083018461110d565b9392505050565b60006080820190506112506000830187610f50565b61125d602083018661110d565b61126a6040830185610f32565b611277606083018461110d565b95945050505050565b6000602082019050818103600083015261129981610faf565b9050919050565b600060208201905081810360008301526112b981610fd2565b9050919050565b600060208201905081810360008301526112d981610ff5565b9050919050565b600060208201905081810360008301526112f981611018565b9050919050565b600060208201905081810360008301526113198161103b565b9050919050565b600060208201905081810360008301526113398161105e565b9050919050565b6000602082019050818103600083015261135981611081565b9050919050565b60006020820190508181036000830152611379816110a4565b9050919050565b60006020820190508181036000830152611399816110ea565b9050919050565b60006020820190506113b5600083018461110d565b92915050565b60006040820190506113d0600083018561110d565b6113dd6020830184610f32565b9392505050565b60006060820190506113f9600083018661110d565b6114066020830185610f32565b6114136040830184610f50565b949350505050565b6000606082019050611430600083018661110d565b61143d6020830185611133565b61144a604083018461110d565b949350505050565b600081519050919050565b600082825260208201905092915050565b600081905092915050565b600082825260208201905092915050565b600061149582611528565b91506114a083611528565b9250827fffffffffffffffffffffffffffffffffffffffffffffffffffffffffffffffff038211156114d5576114d46115b7565b5b828201905092915050565b60006114eb82611508565b9050919050565b60008115159050919050565b6000819050919050565b600073ffffffffffffffffffffffffffffffffffffffff82169050919050565b6000819050919050565b600060ff82169050919050565b60005b8381101561155d578082015181840152602081019050611542565b8381111561156c576000848401525b50505050565b6000819050919050565b6000819050919050565b600061159182611528565b915061159c83611528565b9250826115ac576115ab6115e6565b5b828206905092915050565b7f4e487b7100000000000000000000000000000000000000000000000000000000600052601160045260246000fd5b7f4e487b7100000000000000000000000000000000000000000000000000000000600052601260045260246000fd5b6000601f19601f8301169050919050565b7f47616d652069732066756c6c0000000000000000000000000000000000000000600082015250565b7f47616d6520686173206e6f74206265656e207374617274656420796574000000600082015250565b7f4f776e61626c653a206e6577206f776e657220697320746865207a65726f206160008201527f6464726573730000000000000000000000000000000000000000000000000000602082015250565b7f4661696c656420746f2073656e64204574686572000000000000000000000000600082015250565b7f4e6f7420656e6f756768204c494e4b0000000000000000000000000000000000600082015250565b7f56616c75652073656e74206973206e6f7420657175616c20746f20656e74727960008201527f4665650000000000000000000000000000000000000000000000000000000000602082015250565b7f4f776e61626c653a2063616c6c6572206973206e6f7420746865206f776e6572600082015250565b7f4f6e6c7920565246436f6f7264696e61746f722063616e2066756c66696c6c00600082015250565b50565b7f47616d652069732063757272656e746c792072756e6e696e6700000000000000600082015250565b6117ef816114e0565b81146117fa57600080fd5b50565b611806816114f2565b811461181157600080fd5b50565b61181d816114fe565b811461182857600080fd5b50565b61183481611528565b811461183f57600080fd5b50565b61184b81611532565b811461185657600080fd5b5056fea26469706673582212209d7ce6ebe4d3b2d1ec1586bcf796858cf5354abcab518cd4250fb9b642773c5164736f6c63430008040033",
  "linkReferences": {},
  "deployedLinkReferences": {}
}