{
  "_format": "hh-sol-artifact-1",
  "contractName": "Verify",
  "sourceName": "contracts/Verify.sol",
  "abi": [
    {
      "inputs": [],
      "stateMutability": "nonpayable",
      "type": "constructor"
    },
    {
      "inputs": [
        {
          "internalType": "bool",
          "name": "sayHello",
          "type": "bool"
        }
      ],
      "name": "hello",
      "outputs": [
        {
          "internalType": "string",
          "name": "",
          "type": "string"
        }
      ],
      "stateMutability": "pure",
      "type": "function"
    }
  ],
  "bytecode": "0x608060405234801561001057600080fd5b50610218806100206000396000f3fe608060405234801561001057600080fd5b506004361061002b5760003560e01c80632dec019414610030575b600080fd5b61004a600480360381019061004591906100fa565b610060565b60405161005791906101c0565b60405180910390f35b606081156100a5576040518060400160405280600581526020017f68656c6c6f00000000000000000000000000000000000000000000000000000081525090506100b8565b6040518060200160405280600081525090505b919050565b600080fd5b60008115159050919050565b6100d7816100c2565b81146100e257600080fd5b50565b6000813590506100f4816100ce565b92915050565b6000602082840312156101105761010f6100bd565b5b600061011e848285016100e5565b91505092915050565b600081519050919050565b600082825260208201905092915050565b60005b83811015610161578082015181840152602081019050610146565b83811115610170576000848401525b50505050565b6000601f19601f8301169050919050565b600061019282610127565b61019c8185610132565b93506101ac818560208601610143565b6101b581610176565b840191505092915050565b600060208201905081810360008301526101da8184610187565b90509291505056fea26469706673582212209d89050e95f018ead0fc7fe9138dbb6b52cdf50909613caa82fd7b7fbf020f4f64736f6c634300080a0033",
  "linkReferences": {},
  "deployedLinkReferences": {}
}